{
  "_format": "hh-sol-artifact-1",
  "contractName": "TermDepositToken",
  "sourceName": "contracts/TermDepositToken.sol",
  "abi": [
    {
      "inputs": [
        {
          "internalType": "address",
          "name": "_issuer",
          "type": "address"
        },
        {
          "internalType": "uint256",
          "name": "_startDate",
          "type": "uint256"
        },
        {
          "internalType": "uint256",
          "name": "_maturityDate",
          "type": "uint256"
        },
        {
          "internalType": "uint256",
          "name": "_faceValue",
          "type": "uint256"
        },
        {
          "internalType": "uint256",
          "name": "_interestRate",
          "type": "uint256"
        },
        {
          "internalType": "uint256",
          "name": "_interestAmount",
          "type": "uint256"
        },
        {
          "internalType": "address",
          "name": "_stablecoin",
          "type": "address"
        }
      ],
      "stateMutability": "nonpayable",
      "type": "constructor"
    },
    {
      "inputs": [],
      "name": "ReentrancyGuardReentrantCall",
      "type": "error"
    },
    {
      "inputs": [
        {
          "internalType": "address",
          "name": "token",
          "type": "address"
        }
      ],
      "name": "SafeERC20FailedOperation",
      "type": "error"
    },
    {
      "anonymous": false,
      "inputs": [],
      "name": "Expired",
      "type": "event"
    },
    {
      "anonymous": false,
      "inputs": [
        {
          "indexed": true,
          "internalType": "address",
          "name": "investor",
          "type": "address"
        },
        {
          "indexed": false,
          "internalType": "uint256",
          "name": "faceValue",
          "type": "uint256"
        }
      ],
      "name": "Issued",
      "type": "event"
    },
    {
      "anonymous": false,
      "inputs": [
        {
          "indexed": false,
          "internalType": "uint256",
          "name": "faceValue",
          "type": "uint256"
        },
        {
          "indexed": false,
          "internalType": "uint256",
          "name": "interestAmount",
          "type": "uint256"
        },
        {
          "indexed": false,
          "internalType": "uint256",
          "name": "timestamp",
          "type": "uint256"
        },
        {
          "indexed": false,
          "internalType": "address",
          "name": "to",
          "type": "address"
        }
      ],
      "name": "Redeemed",
      "type": "event"
    },
    {
      "inputs": [
        {
          "internalType": "address",
          "name": "_investor",
          "type": "address"
        }
      ],
      "name": "acceptAndIssue",
      "outputs": [],
      "stateMutability": "nonpayable",
      "type": "function"
    },
    {
      "inputs": [],
      "name": "expired",
      "outputs": [
        {
          "internalType": "bool",
          "name": "",
          "type": "bool"
        }
      ],
      "stateMutability": "view",
      "type": "function"
    },
    {
      "inputs": [],
      "name": "faceValue",
      "outputs": [
        {
          "internalType": "uint256",
          "name": "",
          "type": "uint256"
        }
      ],
      "stateMutability": "view",
      "type": "function"
    },
    {
      "inputs": [],
      "name": "interestAmount",
      "outputs": [
        {
          "internalType": "uint256",
          "name": "",
          "type": "uint256"
        }
      ],
      "stateMutability": "view",
      "type": "function"
    },
    {
      "inputs": [],
      "name": "interestRate",
      "outputs": [
        {
          "internalType": "uint256",
          "name": "",
          "type": "uint256"
        }
      ],
      "stateMutability": "view",
      "type": "function"
    },
    {
      "inputs": [],
      "name": "investor",
      "outputs": [
        {
          "internalType": "address",
          "name": "",
          "type": "address"
        }
      ],
      "stateMutability": "view",
      "type": "function"
    },
    {
      "inputs": [],
      "name": "issued",
      "outputs": [
        {
          "internalType": "bool",
          "name": "",
          "type": "bool"
        }
      ],
      "stateMutability": "view",
      "type": "function"
    },
    {
      "inputs": [],
      "name": "issuer",
      "outputs": [
        {
          "internalType": "address",
          "name": "",
          "type": "address"
        }
      ],
      "stateMutability": "view",
      "type": "function"
    },
    {
      "inputs": [],
      "name": "maturityDate",
      "outputs": [
        {
          "internalType": "uint256",
          "name": "",
          "type": "uint256"
        }
      ],
      "stateMutability": "view",
      "type": "function"
    },
    {
      "inputs": [],
      "name": "redeemMaturity",
      "outputs": [],
      "stateMutability": "nonpayable",
      "type": "function"
    },
    {
      "inputs": [],
      "name": "stablecoin",
      "outputs": [
        {
          "internalType": "contract IERC20",
          "name": "",
          "type": "address"
        }
      ],
      "stateMutability": "view",
      "type": "function"
    },
    {
      "inputs": [],
      "name": "startDate",
      "outputs": [
        {
          "internalType": "uint256",
          "name": "",
          "type": "uint256"
        }
      ],
      "stateMutability": "view",
      "type": "function"
    }
  ],
  "bytecode": "0x60c06040523480156200001157600080fd5b5060405162001323380380620013238339818101604052810190620000379190620002b6565b6001620000596200004d620001dc60201b60201c565b6200020760201b60201c565b60000181905550600073ffffffffffffffffffffffffffffffffffffffff168773ffffffffffffffffffffffffffffffffffffffff1603620000d2576040517f08c379a0000000000000000000000000000000000000000000000000000000008152600401620000c990620003ca565b60405180910390fd5b600073ffffffffffffffffffffffffffffffffffffffff168173ffffffffffffffffffffffffffffffffffffffff160362000144576040517f08c379a00000000000000000000000000000000000000000000000000000000081526004016200013b906200043c565b60405180910390fd5b8673ffffffffffffffffffffffffffffffffffffffff1660808173ffffffffffffffffffffffffffffffffffffffff168152505085600181905550846002819055508360038190555082600481905550816005819055508073ffffffffffffffffffffffffffffffffffffffff1660a08173ffffffffffffffffffffffffffffffffffffffff1681525050505050505050506200045e565b60007f9b779b17422d0df92223018b32b4d1fa46e071723d6817e2486d003becc55f0060001b905090565b6000819050919050565b600080fd5b600073ffffffffffffffffffffffffffffffffffffffff82169050919050565b6000620002438262000216565b9050919050565b620002558162000236565b81146200026157600080fd5b50565b60008151905062000275816200024a565b92915050565b6000819050919050565b62000290816200027b565b81146200029c57600080fd5b50565b600081519050620002b08162000285565b92915050565b600080600080600080600060e0888a031215620002d857620002d762000211565b5b6000620002e88a828b0162000264565b9750506020620002fb8a828b016200029f565b96505060406200030e8a828b016200029f565b9550506060620003218a828b016200029f565b9450506080620003348a828b016200029f565b93505060a0620003478a828b016200029f565b92505060c06200035a8a828b0162000264565b91505092959891949750929550565b600082825260208201905092915050565b7f496e76616c696420697373756572000000000000000000000000000000000000600082015250565b6000620003b2600e8362000369565b9150620003bf826200037a565b602082019050919050565b60006020820190508181036000830152620003e581620003a3565b9050919050565b7f496e76616c696420737461626c65636f696e0000000000000000000000000000600082015250565b60006200042460128362000369565b91506200043182620003ec565b602082019050919050565b60006020820190508181036000830152620004578162000415565b9050919050565b60805160a051610e7c620004a7600039600081816104350152818161069a015261079d015260008181610213015281816102b9015281816103f201526106760152610e7c6000f3fe608060405234801561001057600080fd5b50600436106100b45760003560e01c80635f1ff549116100715780635f1ff549146101595780637c3a00fd14610177578063bf01693014610195578063d59624b4146101b1578063e9cbd822146101cf578063fff2df2a146101ed576100b4565b80630b97bc86146100b95780631d143848146100d75780631e0018d6146100f557806344fd9caa146101135780634885d3f2146101315780634c2067c71461013b575b600080fd5b6100c161020b565b6040516100ce9190610980565b60405180910390f35b6100df610211565b6040516100ec91906109dc565b60405180910390f35b6100fd610235565b60405161010a91906109dc565b60405180910390f35b61011b610259565b6040516101289190610980565b60405180910390f35b61013961025f565b005b61014361052d565b6040516101509190610a12565b60405180910390f35b610161610540565b60405161016e9190610a12565b60405180910390f35b61017f610553565b60405161018c9190610980565b60405180910390f35b6101af60048036038101906101aa9190610a5e565b610559565b005b6101b9610795565b6040516101c69190610980565b60405180910390f35b6101d761079b565b6040516101e49190610aea565b60405180910390f35b6101f56107bf565b6040516102029190610980565b60405180910390f35b60015481565b7f000000000000000000000000000000000000000000000000000000000000000081565b60008054906101000a900473ffffffffffffffffffffffffffffffffffffffff1681565b60035481565b6102676107c5565b600660019054906101000a900460ff16156102b7576040517f08c379a00000000000000000000000000000000000000000000000000000000081526004016102ae90610b62565b60405180910390fd5b7f000000000000000000000000000000000000000000000000000000000000000073ffffffffffffffffffffffffffffffffffffffff163373ffffffffffffffffffffffffffffffffffffffff1614610345576040517f08c379a000000000000000000000000000000000000000000000000000000000815260040161033c90610bce565b60405180910390fd5b600660009054906101000a900460ff16610394576040517f08c379a000000000000000000000000000000000000000000000000000000000815260040161038b90610c3a565b60405180910390fd5b6002544210156103d9576040517f08c379a00000000000000000000000000000000000000000000000000000000081526004016103d090610ca6565b60405180910390fd5b60006005546003546103eb9190610cf5565b905061047a7f000000000000000000000000000000000000000000000000000000000000000060008054906101000a900473ffffffffffffffffffffffffffffffffffffffff16837f000000000000000000000000000000000000000000000000000000000000000073ffffffffffffffffffffffffffffffffffffffff166107e8909392919063ffffffff16565b6001600660016101000a81548160ff0219169083151502179055507f23e0c998ae75d9579d148b14dc821ad29c5b10da36dfbd9271f6203e83b2a4c46003546005544260008054906101000a900473ffffffffffffffffffffffffffffffffffffffff166040516104ee9493929190610d29565b60405180910390a17f203d82d8d99f63bfecc8335216735e0271df4249ea752b030f9ab305b94e5afe60405160405180910390a15061052b61083d565b565b600660019054906101000a900460ff1681565b600660009054906101000a900460ff1681565b60045481565b6105616107c5565b600660019054906101000a900460ff16156105b1576040517f08c379a00000000000000000000000000000000000000000000000000000000081526004016105a890610b62565b60405180910390fd5b600660009054906101000a900460ff1615610601576040517f08c379a00000000000000000000000000000000000000000000000000000000081526004016105f890610dba565b60405180910390fd5b600073ffffffffffffffffffffffffffffffffffffffff168173ffffffffffffffffffffffffffffffffffffffff1603610670576040517f08c379a000000000000000000000000000000000000000000000000000000000815260040161066790610e26565b60405180910390fd5b6106df817f00000000000000000000000000000000000000000000000000000000000000006003547f000000000000000000000000000000000000000000000000000000000000000073ffffffffffffffffffffffffffffffffffffffff166107e8909392919063ffffffff16565b806000806101000a81548173ffffffffffffffffffffffffffffffffffffffff021916908373ffffffffffffffffffffffffffffffffffffffff1602179055506001600660006101000a81548160ff0219169083151502179055508073ffffffffffffffffffffffffffffffffffffffff167fa59f12e354e8cd10bb74c559844c2dd69a5458e31fe56c7594c62ca57480509a6003546040516107829190610980565b60405180910390a261079261083d565b50565b60025481565b7f000000000000000000000000000000000000000000000000000000000000000081565b60055481565b6107cd610858565b60026107df6107da610899565b6108c4565b60000181905550565b6107f68484848460016108ce565b61083757836040517f5274afe700000000000000000000000000000000000000000000000000000000815260040161082e91906109dc565b60405180910390fd5b50505050565b600161084f61084a610899565b6108c4565b60000181905550565b610860610949565b15610897576040517f3ee5aeb500000000000000000000000000000000000000000000000000000000815260040160405180910390fd5b565b60007f9b779b17422d0df92223018b32b4d1fa46e071723d6817e2486d003becc55f0060001b905090565b6000819050919050565b6000806323b872dd60e01b90506040518160005260001960601c871660045260001960601c8616602452846044526020600060646000808c5af192506001600051148316610935578383151615610928573d6000823e3d81fd5b6000883b113d1516831692505b806040526000606052505095945050505050565b6000600261095d610958610899565b6108c4565b6000015414905090565b6000819050919050565b61097a81610967565b82525050565b60006020820190506109956000830184610971565b92915050565b600073ffffffffffffffffffffffffffffffffffffffff82169050919050565b60006109c68261099b565b9050919050565b6109d6816109bb565b82525050565b60006020820190506109f160008301846109cd565b92915050565b60008115159050919050565b610a0c816109f7565b82525050565b6000602082019050610a276000830184610a03565b92915050565b600080fd5b610a3b816109bb565b8114610a4657600080fd5b50565b600081359050610a5881610a32565b92915050565b600060208284031215610a7457610a73610a2d565b5b6000610a8284828501610a49565b91505092915050565b6000819050919050565b6000610ab0610aab610aa68461099b565b610a8b565b61099b565b9050919050565b6000610ac282610a95565b9050919050565b6000610ad482610ab7565b9050919050565b610ae481610ac9565b82525050565b6000602082019050610aff6000830184610adb565b92915050565b600082825260208201905092915050565b7f5465726d206465706f7369742065787069726564000000000000000000000000600082015250565b6000610b4c601483610b05565b9150610b5782610b16565b602082019050919050565b60006020820190508181036000830152610b7b81610b3f565b9050919050565b7f4f6e6c79206973737565722063616e2072656465656d00000000000000000000600082015250565b6000610bb8601683610b05565b9150610bc382610b82565b602082019050919050565b60006020820190508181036000830152610be781610bab565b9050919050565b7f4e6f742079657420697373756564000000000000000000000000000000000000600082015250565b6000610c24600e83610b05565b9150610c2f82610bee565b602082019050919050565b60006020820190508181036000830152610c5381610c17565b9050919050565b7f4e6f7420796574206d6174757265640000000000000000000000000000000000600082015250565b6000610c90600f83610b05565b9150610c9b82610c5a565b602082019050919050565b60006020820190508181036000830152610cbf81610c83565b9050919050565b7f4e487b7100000000000000000000000000000000000000000000000000000000600052601160045260246000fd5b6000610d0082610967565b9150610d0b83610967565b9250828201905080821115610d2357610d22610cc6565b5b92915050565b6000608082019050610d3e6000830187610971565b610d4b6020830186610971565b610d586040830185610971565b610d6560608301846109cd565b95945050505050565b7f416c726561647920697373756564000000000000000000000000000000000000600082015250565b6000610da4600e83610b05565b9150610daf82610d6e565b602082019050919050565b60006020820190508181036000830152610dd381610d97565b9050919050565b7f496e76616c696420696e766573746f7200000000000000000000000000000000600082015250565b6000610e10601083610b05565b9150610e1b82610dda565b602082019050919050565b60006020820190508181036000830152610e3f81610e03565b905091905056fea2646970667358221220f15f76942ee8b619dad850a0a803752b87525c3bd35add34b850032b33d4e02064736f6c63430008150033",
  "linkReferences": {},
  "deployedLinkReferences": {}
}