{
  "_format": "hh-sol-artifact-1",
  "contractName": "NCDToken",
  "sourceName": "contracts/NCDToken.sol",
  "abi": [
    {
      "inputs": [
        {
          "internalType": "address",
          "name": "_issuer",
          "type": "address"
        },
        {
          "internalType": "uint256",
          "name": "_startDate",
          "type": "uint256"
        },
        {
          "internalType": "uint256",
          "name": "_maturityDate",
          "type": "uint256"
        },
        {
          "internalType": "uint256",
          "name": "_faceValue",
          "type": "uint256"
        },
        {
          "internalType": "uint256",
          "name": "_interestRate",
          "type": "uint256"
        },
        {
          "internalType": "uint256",
          "name": "_discountedValue",
          "type": "uint256"
        },
        {
          "internalType": "address",
          "name": "_stablecoin",
          "type": "address"
        }
      ],
      "stateMutability": "nonpayable",
      "type": "constructor"
    },
    {
      "inputs": [],
      "name": "ReentrancyGuardReentrantCall",
      "type": "error"
    },
    {
      "inputs": [
        {
          "internalType": "address",
          "name": "token",
          "type": "address"
        }
      ],
      "name": "SafeERC20FailedOperation",
      "type": "error"
    },
    {
      "anonymous": false,
      "inputs": [],
      "name": "Expired",
      "type": "event"
    },
    {
      "anonymous": false,
      "inputs": [
        {
          "indexed": true,
          "internalType": "address",
          "name": "investor",
          "type": "address"
        },
        {
          "indexed": false,
          "internalType": "uint256",
          "name": "discountedValue",
          "type": "uint256"
        }
      ],
      "name": "Issued",
      "type": "event"
    },
    {
      "anonymous": false,
      "inputs": [
        {
          "indexed": true,
          "internalType": "address",
          "name": "from",
          "type": "address"
        },
        {
          "indexed": true,
          "internalType": "address",
          "name": "to",
          "type": "address"
        },
        {
          "indexed": false,
          "internalType": "uint256",
          "name": "price",
          "type": "uint256"
        }
      ],
      "name": "NCDTransferred",
      "type": "event"
    },
    {
      "anonymous": false,
      "inputs": [
        {
          "indexed": false,
          "internalType": "uint256",
          "name": "faceValue",
          "type": "uint256"
        },
        {
          "indexed": false,
          "internalType": "uint256",
          "name": "timestamp",
          "type": "uint256"
        },
        {
          "indexed": false,
          "internalType": "address",
          "name": "to",
          "type": "address"
        }
      ],
      "name": "Redeemed",
      "type": "event"
    },
    {
      "inputs": [
        {
          "internalType": "address",
          "name": "_investor",
          "type": "address"
        }
      ],
      "name": "acceptAndIssue",
      "outputs": [],
      "stateMutability": "nonpayable",
      "type": "function"
    },
    {
      "inputs": [],
      "name": "currentOwner",
      "outputs": [
        {
          "internalType": "address",
          "name": "",
          "type": "address"
        }
      ],
      "stateMutability": "view",
      "type": "function"
    },
    {
      "inputs": [],
      "name": "discountedValue",
      "outputs": [
        {
          "internalType": "uint256",
          "name": "",
          "type": "uint256"
        }
      ],
      "stateMutability": "view",
      "type": "function"
    },
    {
      "inputs": [],
      "name": "expired",
      "outputs": [
        {
          "internalType": "bool",
          "name": "",
          "type": "bool"
        }
      ],
      "stateMutability": "view",
      "type": "function"
    },
    {
      "inputs": [],
      "name": "faceValue",
      "outputs": [
        {
          "internalType": "uint256",
          "name": "",
          "type": "uint256"
        }
      ],
      "stateMutability": "view",
      "type": "function"
    },
    {
      "inputs": [],
      "name": "interestRate",
      "outputs": [
        {
          "internalType": "uint256",
          "name": "",
          "type": "uint256"
        }
      ],
      "stateMutability": "view",
      "type": "function"
    },
    {
      "inputs": [],
      "name": "investor",
      "outputs": [
        {
          "internalType": "address",
          "name": "",
          "type": "address"
        }
      ],
      "stateMutability": "view",
      "type": "function"
    },
    {
      "inputs": [],
      "name": "issued",
      "outputs": [
        {
          "internalType": "bool",
          "name": "",
          "type": "bool"
        }
      ],
      "stateMutability": "view",
      "type": "function"
    },
    {
      "inputs": [],
      "name": "issuer",
      "outputs": [
        {
          "internalType": "address",
          "name": "",
          "type": "address"
        }
      ],
      "stateMutability": "view",
      "type": "function"
    },
    {
      "inputs": [],
      "name": "maturityDate",
      "outputs": [
        {
          "internalType": "uint256",
          "name": "",
          "type": "uint256"
        }
      ],
      "stateMutability": "view",
      "type": "function"
    },
    {
      "inputs": [],
      "name": "redeemMaturity",
      "outputs": [],
      "stateMutability": "nonpayable",
      "type": "function"
    },
    {
      "inputs": [],
      "name": "stablecoin",
      "outputs": [
        {
          "internalType": "contract IERC20",
          "name": "",
          "type": "address"
        }
      ],
      "stateMutability": "view",
      "type": "function"
    },
    {
      "inputs": [],
      "name": "startDate",
      "outputs": [
        {
          "internalType": "uint256",
          "name": "",
          "type": "uint256"
        }
      ],
      "stateMutability": "view",
      "type": "function"
    },
    {
      "inputs": [
        {
          "internalType": "address",
          "name": "newOwner",
          "type": "address"
        },
        {
          "internalType": "uint256",
          "name": "price",
          "type": "uint256"
        }
      ],
      "name": "transferNCD",
      "outputs": [],
      "stateMutability": "nonpayable",
      "type": "function"
    }
  ],
  "bytecode": "0x60c06040523480156200001157600080fd5b5060405162001983380380620019838339818101604052810190620000379190620002fc565b6001620000596200004d6200022260201b60201c565b6200024d60201b60201c565b60000181905550600073ffffffffffffffffffffffffffffffffffffffff168773ffffffffffffffffffffffffffffffffffffffff1603620000d2576040517f08c379a0000000000000000000000000000000000000000000000000000000008152600401620000c99062000410565b60405180910390fd5b600073ffffffffffffffffffffffffffffffffffffffff168173ffffffffffffffffffffffffffffffffffffffff160362000144576040517f08c379a00000000000000000000000000000000000000000000000000000000081526004016200013b9062000482565b60405180910390fd5b838211156200018a576040517f08c379a00000000000000000000000000000000000000000000000000000000081526004016200018190620004f4565b60405180910390fd5b8673ffffffffffffffffffffffffffffffffffffffff1660808173ffffffffffffffffffffffffffffffffffffffff168152505085600281905550846003819055508360048190555082600581905550816006819055508073ffffffffffffffffffffffffffffffffffffffff1660a08173ffffffffffffffffffffffffffffffffffffffff16815250505050505050505062000516565b60007f9b779b17422d0df92223018b32b4d1fa46e071723d6817e2486d003becc55f0060001b905090565b6000819050919050565b600080fd5b600073ffffffffffffffffffffffffffffffffffffffff82169050919050565b600062000289826200025c565b9050919050565b6200029b816200027c565b8114620002a757600080fd5b50565b600081519050620002bb8162000290565b92915050565b6000819050919050565b620002d681620002c1565b8114620002e257600080fd5b50565b600081519050620002f681620002cb565b92915050565b600080600080600080600060e0888a0312156200031e576200031d62000257565b5b60006200032e8a828b01620002aa565b9750506020620003418a828b01620002e5565b9650506040620003548a828b01620002e5565b9550506060620003678a828b01620002e5565b94505060806200037a8a828b01620002e5565b93505060a06200038d8a828b01620002e5565b92505060c0620003a08a828b01620002aa565b91505092959891949750929550565b600082825260208201905092915050565b7f496e76616c696420697373756572000000000000000000000000000000000000600082015250565b6000620003f8600e83620003af565b91506200040582620003c0565b602082019050919050565b600060208201905081810360008301526200042b81620003e9565b9050919050565b7f496e76616c696420737461626c65636f696e0000000000000000000000000000600082015250565b60006200046a601283620003af565b9150620004778262000432565b602082019050919050565b600060208201905081810360008301526200049d816200045b565b9050919050565b7f446973636f756e74206578636565647320666163652076616c75650000000000600082015250565b6000620004dc601b83620003af565b9150620004e982620004a4565b602082019050919050565b600060208201905081810360008301526200050f81620004cd565b9050919050565b60805160a05161141d6200056660003960008181610495015281816107cf01528181610a550152610b99015260008181610283015281816103290152818161044e0152610a31015261141d6000f3fe608060405234801561001057600080fd5b50600436106100ea5760003560e01c8063601327651161008c578063b387ef9211610066578063b387ef9214610205578063bf01693014610223578063d59624b41461023f578063e9cbd8221461025d576100ea565b806360132765146101ad5780637c3a00fd146101cb578063aa40bf98146101e9576100ea565b806344fd9caa116100c857806344fd9caa146101495780634885d3f2146101675780634c2067c7146101715780635f1ff5491461018f576100ea565b80630b97bc86146100ef5780631d1438481461010d5780631e0018d61461012b575b600080fd5b6100f761027b565b6040516101049190610d76565b60405180910390f35b610115610281565b6040516101229190610dd2565b60405180910390f35b6101336102a5565b6040516101409190610dd2565b60405180910390f35b6101516102c9565b60405161015e9190610d76565b60405180910390f35b61016f6102cf565b005b61017961058a565b6040516101869190610e08565b60405180910390f35b61019761059d565b6040516101a49190610e08565b60405180910390f35b6101b56105b0565b6040516101c29190610d76565b60405180910390f35b6101d36105b6565b6040516101e09190610d76565b60405180910390f35b61020360048036038101906101fe9190610e80565b6105bc565b005b61020d6108ee565b60405161021a9190610dd2565b60405180910390f35b61023d60048036038101906102389190610ec0565b610914565b005b610247610b91565b6040516102549190610d76565b60405180910390f35b610265610b97565b6040516102729190610f4c565b60405180910390f35b60025481565b7f000000000000000000000000000000000000000000000000000000000000000081565b60008054906101000a900473ffffffffffffffffffffffffffffffffffffffff1681565b60045481565b6102d7610bbb565b600760019054906101000a900460ff1615610327576040517f08c379a000000000000000000000000000000000000000000000000000000000815260040161031e90610fc4565b60405180910390fd5b7f000000000000000000000000000000000000000000000000000000000000000073ffffffffffffffffffffffffffffffffffffffff163373ffffffffffffffffffffffffffffffffffffffff16146103b5576040517f08c379a00000000000000000000000000000000000000000000000000000000081526004016103ac90611030565b60405180910390fd5b600760009054906101000a900460ff16610404576040517f08c379a00000000000000000000000000000000000000000000000000000000081526004016103fb9061109c565b60405180910390fd5b600354421015610449576040517f08c379a000000000000000000000000000000000000000000000000000000000815260040161044090611108565b60405180910390fd5b6104da7f0000000000000000000000000000000000000000000000000000000000000000600160009054906101000a900473ffffffffffffffffffffffffffffffffffffffff166004547f000000000000000000000000000000000000000000000000000000000000000073ffffffffffffffffffffffffffffffffffffffff16610bde909392919063ffffffff16565b6001600760016101000a81548160ff0219169083151502179055507fdc013715024602616599d62723b14eed2b92fbefe85c725f99328116524b23a260045442600160009054906101000a900473ffffffffffffffffffffffffffffffffffffffff1660405161054c93929190611128565b60405180910390a17f203d82d8d99f63bfecc8335216735e0271df4249ea752b030f9ab305b94e5afe60405160405180910390a1610588610c33565b565b600760019054906101000a900460ff1681565b600760009054906101000a900460ff1681565b60065481565b60055481565b6105c4610bbb565b600760019054906101000a900460ff1615610614576040517f08c379a000000000000000000000000000000000000000000000000000000000815260040161060b90610fc4565b60405180910390fd5b600760009054906101000a900460ff16610663576040517f08c379a000000000000000000000000000000000000000000000000000000000815260040161065a906111ab565b60405180910390fd5b600160009054906101000a900473ffffffffffffffffffffffffffffffffffffffff1673ffffffffffffffffffffffffffffffffffffffff163373ffffffffffffffffffffffffffffffffffffffff16146106f3576040517f08c379a00000000000000000000000000000000000000000000000000000000081526004016106ea90611217565b60405180910390fd5b600073ffffffffffffffffffffffffffffffffffffffff168273ffffffffffffffffffffffffffffffffffffffff1603610762576040517f08c379a000000000000000000000000000000000000000000000000000000000815260040161075990611283565b60405180910390fd5b600081116107a5576040517f08c379a000000000000000000000000000000000000000000000000000000000815260040161079c906112ef565b60405180910390fd5b61081482600160009054906101000a900473ffffffffffffffffffffffffffffffffffffffff16837f000000000000000000000000000000000000000000000000000000000000000073ffffffffffffffffffffffffffffffffffffffff16610bde909392919063ffffffff16565b6000600160009054906101000a900473ffffffffffffffffffffffffffffffffffffffff16905082600160006101000a81548173ffffffffffffffffffffffffffffffffffffffff021916908373ffffffffffffffffffffffffffffffffffffffff1602179055508273ffffffffffffffffffffffffffffffffffffffff168173ffffffffffffffffffffffffffffffffffffffff167f258ee7ad74d3cc7ac5390bcd9a4f56b35d080961b690e51006da59cd0dae2dfd846040516108d99190610d76565b60405180910390a3506108ea610c33565b5050565b600160009054906101000a900473ffffffffffffffffffffffffffffffffffffffff1681565b61091c610bbb565b600760019054906101000a900460ff161561096c576040517f08c379a000000000000000000000000000000000000000000000000000000000815260040161096390610fc4565b60405180910390fd5b600760009054906101000a900460ff16156109bc576040517f08c379a00000000000000000000000000000000000000000000000000000000081526004016109b39061135b565b60405180910390fd5b600073ffffffffffffffffffffffffffffffffffffffff168173ffffffffffffffffffffffffffffffffffffffff1603610a2b576040517f08c379a0000000000000000000000000000000000000000000000000000000008152600401610a22906113c7565b60405180910390fd5b610a9a817f00000000000000000000000000000000000000000000000000000000000000006006547f000000000000000000000000000000000000000000000000000000000000000073ffffffffffffffffffffffffffffffffffffffff16610bde909392919063ffffffff16565b806000806101000a81548173ffffffffffffffffffffffffffffffffffffffff021916908373ffffffffffffffffffffffffffffffffffffffff16021790555080600160006101000a81548173ffffffffffffffffffffffffffffffffffffffff021916908373ffffffffffffffffffffffffffffffffffffffff1602179055506001600760006101000a81548160ff0219169083151502179055508073ffffffffffffffffffffffffffffffffffffffff167fa59f12e354e8cd10bb74c559844c2dd69a5458e31fe56c7594c62ca57480509a600654604051610b7e9190610d76565b60405180910390a2610b8e610c33565b50565b60035481565b7f000000000000000000000000000000000000000000000000000000000000000081565b610bc3610c4e565b6002610bd5610bd0610c8f565b610cba565b60000181905550565b610bec848484846001610cc4565b610c2d57836040517f5274afe7000000000000000000000000000000000000000000000000000000008152600401610c249190610dd2565b60405180910390fd5b50505050565b6001610c45610c40610c8f565b610cba565b60000181905550565b610c56610d3f565b15610c8d576040517f3ee5aeb500000000000000000000000000000000000000000000000000000000815260040160405180910390fd5b565b60007f9b779b17422d0df92223018b32b4d1fa46e071723d6817e2486d003becc55f0060001b905090565b6000819050919050565b6000806323b872dd60e01b90506040518160005260001960601c871660045260001960601c8616602452846044526020600060646000808c5af192506001600051148316610d2b578383151615610d1e573d6000823e3d81fd5b6000883b113d1516831692505b806040526000606052505095945050505050565b60006002610d53610d4e610c8f565b610cba565b6000015414905090565b6000819050919050565b610d7081610d5d565b82525050565b6000602082019050610d8b6000830184610d67565b92915050565b600073ffffffffffffffffffffffffffffffffffffffff82169050919050565b6000610dbc82610d91565b9050919050565b610dcc81610db1565b82525050565b6000602082019050610de76000830184610dc3565b92915050565b60008115159050919050565b610e0281610ded565b82525050565b6000602082019050610e1d6000830184610df9565b92915050565b600080fd5b610e3181610db1565b8114610e3c57600080fd5b50565b600081359050610e4e81610e28565b92915050565b610e5d81610d5d565b8114610e6857600080fd5b50565b600081359050610e7a81610e54565b92915050565b60008060408385031215610e9757610e96610e23565b5b6000610ea585828601610e3f565b9250506020610eb685828601610e6b565b9150509250929050565b600060208284031215610ed657610ed5610e23565b5b6000610ee484828501610e3f565b91505092915050565b6000819050919050565b6000610f12610f0d610f0884610d91565b610eed565b610d91565b9050919050565b6000610f2482610ef7565b9050919050565b6000610f3682610f19565b9050919050565b610f4681610f2b565b82525050565b6000602082019050610f616000830184610f3d565b92915050565b600082825260208201905092915050565b7f4e43442065787069726564000000000000000000000000000000000000000000600082015250565b6000610fae600b83610f67565b9150610fb982610f78565b602082019050919050565b60006020820190508181036000830152610fdd81610fa1565b9050919050565b7f4f6e6c79206973737565722063616e2072656465656d00000000000000000000600082015250565b600061101a601683610f67565b915061102582610fe4565b602082019050919050565b600060208201905081810360008301526110498161100d565b9050919050565b7f4e6f742079657420697373756564000000000000000000000000000000000000600082015250565b6000611086600e83610f67565b915061109182611050565b602082019050919050565b600060208201905081810360008301526110b581611079565b9050919050565b7f4e6f7420796574206d6174757265640000000000000000000000000000000000600082015250565b60006110f2600f83610f67565b91506110fd826110bc565b602082019050919050565b60006020820190508181036000830152611121816110e5565b9050919050565b600060608201905061113d6000830186610d67565b61114a6020830185610d67565b6111576040830184610dc3565b949350505050565b7f4e4344206e6f7420697373756564000000000000000000000000000000000000600082015250565b6000611195600e83610f67565b91506111a08261115f565b602082019050919050565b600060208201905081810360008301526111c481611188565b9050919050565b7f4f6e6c792063757272656e74206f776e65722063616e207472616e7366657200600082015250565b6000611201601f83610f67565b915061120c826111cb565b602082019050919050565b60006020820190508181036000830152611230816111f4565b9050919050565b7f496e76616c6964206e6577206f776e6572000000000000000000000000000000600082015250565b600061126d601183610f67565b915061127882611237565b602082019050919050565b6000602082019050818103600083015261129c81611260565b9050919050565b7f5072696365206d757374206265203e2030000000000000000000000000000000600082015250565b60006112d9601183610f67565b91506112e4826112a3565b602082019050919050565b60006020820190508181036000830152611308816112cc565b9050919050565b7f416c726561647920697373756564000000000000000000000000000000000000600082015250565b6000611345600e83610f67565b91506113508261130f565b602082019050919050565b6000602082019050818103600083015261137481611338565b9050919050565b7f496e76616c696420696e766573746f7200000000000000000000000000000000600082015250565b60006113b1601083610f67565b91506113bc8261137b565b602082019050919050565b600060208201905081810360008301526113e0816113a4565b905091905056fea264697066735822122080b7b43b64f09fe419eabcd552d4d4c0ed00aba960f4d88ebcaf6b4472b023ea64736f6c63430008150033",
  "linkReferences": {},
  "deployedLinkReferences": {}
}