{
  "_format": "hh-sol-artifact-1",
  "contractName": "NCDToken",
  "sourceName": "contracts/NCDToken.sol",
  "abi": [
    {
      "inputs": [
        {
          "internalType": "address",
          "name": "_issuer",
          "type": "address"
        },
        {
          "internalType": "uint256",
          "name": "_startDate",
          "type": "uint256"
        },
        {
          "internalType": "uint256",
          "name": "_maturityDate",
          "type": "uint256"
        },
        {
          "internalType": "uint256",
          "name": "_faceValue",
          "type": "uint256"
        },
        {
          "internalType": "uint256",
          "name": "_interestRate",
          "type": "uint256"
        },
        {
          "internalType": "uint256",
          "name": "_discountedValue",
          "type": "uint256"
        },
        {
          "internalType": "address",
          "name": "_stablecoin",
          "type": "address"
        }
      ],
      "stateMutability": "nonpayable",
      "type": "constructor"
    },
    {
      "inputs": [],
      "name": "ReentrancyGuardReentrantCall",
      "type": "error"
    },
    {
      "inputs": [
        {
          "internalType": "address",
          "name": "token",
          "type": "address"
        }
      ],
      "name": "SafeERC20FailedOperation",
      "type": "error"
    },
    {
      "anonymous": false,
      "inputs": [],
      "name": "Expired",
      "type": "event"
    },
    {
      "anonymous": false,
      "inputs": [
        {
          "indexed": true,
          "internalType": "address",
          "name": "investor",
          "type": "address"
        },
        {
          "indexed": false,
          "internalType": "uint256",
          "name": "discountedValue",
          "type": "uint256"
        }
      ],
      "name": "Issued",
      "type": "event"
    },
    {
      "anonymous": false,
      "inputs": [
        {
          "indexed": true,
          "internalType": "address",
          "name": "from",
          "type": "address"
        },
        {
          "indexed": true,
          "internalType": "address",
          "name": "to",
          "type": "address"
        },
        {
          "indexed": false,
          "internalType": "uint256",
          "name": "price",
          "type": "uint256"
        }
      ],
      "name": "NCDTransferred",
      "type": "event"
    },
    {
      "anonymous": false,
      "inputs": [
        {
          "indexed": false,
          "internalType": "uint256",
          "name": "faceValue",
          "type": "uint256"
        },
        {
          "indexed": false,
          "internalType": "uint256",
          "name": "timestamp",
          "type": "uint256"
        },
        {
          "indexed": false,
          "internalType": "address",
          "name": "to",
          "type": "address"
        }
      ],
      "name": "Redeemed",
      "type": "event"
    },
    {
      "inputs": [
        {
          "internalType": "address",
          "name": "_investor",
          "type": "address"
        }
      ],
      "name": "acceptAndIssue",
      "outputs": [],
      "stateMutability": "nonpayable",
      "type": "function"
    },
    {
      "inputs": [],
      "name": "currentOwner",
      "outputs": [
        {
          "internalType": "address",
          "name": "",
          "type": "address"
        }
      ],
      "stateMutability": "view",
      "type": "function"
    },
    {
      "inputs": [],
      "name": "discountedValue",
      "outputs": [
        {
          "internalType": "uint256",
          "name": "",
          "type": "uint256"
        }
      ],
      "stateMutability": "view",
      "type": "function"
    },
    {
      "inputs": [],
      "name": "expired",
      "outputs": [
        {
          "internalType": "bool",
          "name": "",
          "type": "bool"
        }
      ],
      "stateMutability": "view",
      "type": "function"
    },
    {
      "inputs": [],
      "name": "faceValue",
      "outputs": [
        {
          "internalType": "uint256",
          "name": "",
          "type": "uint256"
        }
      ],
      "stateMutability": "view",
      "type": "function"
    },
    {
      "inputs": [],
      "name": "interestRate",
      "outputs": [
        {
          "internalType": "uint256",
          "name": "",
          "type": "uint256"
        }
      ],
      "stateMutability": "view",
      "type": "function"
    },
    {
      "inputs": [],
      "name": "investor",
      "outputs": [
        {
          "internalType": "address",
          "name": "",
          "type": "address"
        }
      ],
      "stateMutability": "view",
      "type": "function"
    },
    {
      "inputs": [],
      "name": "issued",
      "outputs": [
        {
          "internalType": "bool",
          "name": "",
          "type": "bool"
        }
      ],
      "stateMutability": "view",
      "type": "function"
    },
    {
      "inputs": [],
      "name": "issuer",
      "outputs": [
        {
          "internalType": "address",
          "name": "",
          "type": "address"
        }
      ],
      "stateMutability": "view",
      "type": "function"
    },
    {
      "inputs": [],
      "name": "maturityDate",
      "outputs": [
        {
          "internalType": "uint256",
          "name": "",
          "type": "uint256"
        }
      ],
      "stateMutability": "view",
      "type": "function"
    },
    {
      "inputs": [],
      "name": "redeemMaturity",
      "outputs": [],
      "stateMutability": "nonpayable",
      "type": "function"
    },
    {
      "inputs": [],
      "name": "stablecoin",
      "outputs": [
        {
          "internalType": "contract IERC20",
          "name": "",
          "type": "address"
        }
      ],
      "stateMutability": "view",
      "type": "function"
    },
    {
      "inputs": [],
      "name": "startDate",
      "outputs": [
        {
          "internalType": "uint256",
          "name": "",
          "type": "uint256"
        }
      ],
      "stateMutability": "view",
      "type": "function"
    },
    {
      "inputs": [
        {
          "internalType": "address",
          "name": "newOwner",
          "type": "address"
        },
        {
          "internalType": "uint256",
          "name": "price",
          "type": "uint256"
        }
      ],
      "name": "transferNCD",
      "outputs": [],
      "stateMutability": "nonpayable",
      "type": "function"
    }
  ],
  "bytecode": "0x60c06040523480156200001157600080fd5b5060405162001939380380620019398339818101604052810190620000379190620002a6565b6001600081905550600073ffffffffffffffffffffffffffffffffffffffff168773ffffffffffffffffffffffffffffffffffffffff1603620000b1576040517f08c379a0000000000000000000000000000000000000000000000000000000008152600401620000a890620003ba565b60405180910390fd5b600073ffffffffffffffffffffffffffffffffffffffff168173ffffffffffffffffffffffffffffffffffffffff160362000123576040517f08c379a00000000000000000000000000000000000000000000000000000000081526004016200011a906200042c565b60405180910390fd5b8382111562000169576040517f08c379a000000000000000000000000000000000000000000000000000000000815260040162000160906200049e565b60405180910390fd5b8673ffffffffffffffffffffffffffffffffffffffff1660808173ffffffffffffffffffffffffffffffffffffffff168152505085600381905550846004819055508360058190555082600681905550816007819055508073ffffffffffffffffffffffffffffffffffffffff1660a08173ffffffffffffffffffffffffffffffffffffffff168152505050505050505050620004c0565b600080fd5b600073ffffffffffffffffffffffffffffffffffffffff82169050919050565b6000620002338262000206565b9050919050565b620002458162000226565b81146200025157600080fd5b50565b60008151905062000265816200023a565b92915050565b6000819050919050565b62000280816200026b565b81146200028c57600080fd5b50565b600081519050620002a08162000275565b92915050565b600080600080600080600060e0888a031215620002c857620002c762000201565b5b6000620002d88a828b0162000254565b9750506020620002eb8a828b016200028f565b9650506040620002fe8a828b016200028f565b9550506060620003118a828b016200028f565b9450506080620003248a828b016200028f565b93505060a0620003378a828b016200028f565b92505060c06200034a8a828b0162000254565b91505092959891949750929550565b600082825260208201905092915050565b7f496e76616c696420697373756572000000000000000000000000000000000000600082015250565b6000620003a2600e8362000359565b9150620003af826200036a565b602082019050919050565b60006020820190508181036000830152620003d58162000393565b9050919050565b7f496e76616c696420737461626c65636f696e0000000000000000000000000000600082015250565b60006200041460128362000359565b91506200042182620003dc565b602082019050919050565b60006020820190508181036000830152620004478162000405565b9050919050565b7f446973636f756e74206578636565647320666163652076616c75650000000000600082015250565b600062000486601b8362000359565b915062000493826200044e565b602082019050919050565b60006020820190508181036000830152620004b98162000477565b9050919050565b60805160a0516114296200051060003960008181610497015281816107d101528181610a570152610b9c0152600081816102830152818161032b015281816104500152610a3301526114296000f3fe608060405234801561001057600080fd5b50600436106100ea5760003560e01c8063601327651161008c578063b387ef9211610066578063b387ef9214610205578063bf01693014610223578063d59624b41461023f578063e9cbd8221461025d576100ea565b806360132765146101ad5780637c3a00fd146101cb578063aa40bf98146101e9576100ea565b806344fd9caa116100c857806344fd9caa146101495780634885d3f2146101675780634c2067c7146101715780635f1ff5491461018f576100ea565b80630b97bc86146100ef5780631d1438481461010d5780631e0018d61461012b575b600080fd5b6100f761027b565b6040516101049190610d4b565b60405180910390f35b610115610281565b6040516101229190610da7565b60405180910390f35b6101336102a5565b6040516101409190610da7565b60405180910390f35b6101516102cb565b60405161015e9190610d4b565b60405180910390f35b61016f6102d1565b005b61017961058c565b6040516101869190610ddd565b60405180910390f35b61019761059f565b6040516101a49190610ddd565b60405180910390f35b6101b56105b2565b6040516101c29190610d4b565b60405180910390f35b6101d36105b8565b6040516101e09190610d4b565b60405180910390f35b61020360048036038101906101fe9190610e55565b6105be565b005b61020d6108f0565b60405161021a9190610da7565b60405180910390f35b61023d60048036038101906102389190610e95565b610916565b005b610247610b94565b6040516102549190610d4b565b60405180910390f35b610265610b9a565b6040516102729190610f21565b60405180910390f35b60035481565b7f000000000000000000000000000000000000000000000000000000000000000081565b600160009054906101000a900473ffffffffffffffffffffffffffffffffffffffff1681565b60055481565b6102d9610bbe565b600860019054906101000a900460ff1615610329576040517f08c379a000000000000000000000000000000000000000000000000000000000815260040161032090610f99565b60405180910390fd5b7f000000000000000000000000000000000000000000000000000000000000000073ffffffffffffffffffffffffffffffffffffffff163373ffffffffffffffffffffffffffffffffffffffff16146103b7576040517f08c379a00000000000000000000000000000000000000000000000000000000081526004016103ae90611005565b60405180910390fd5b600860009054906101000a900460ff16610406576040517f08c379a00000000000000000000000000000000000000000000000000000000081526004016103fd90611071565b60405180910390fd5b60045442101561044b576040517f08c379a0000000000000000000000000000000000000000000000000000000008152600401610442906110dd565b60405180910390fd5b6104dc7f0000000000000000000000000000000000000000000000000000000000000000600260009054906101000a900473ffffffffffffffffffffffffffffffffffffffff166005547f000000000000000000000000000000000000000000000000000000000000000073ffffffffffffffffffffffffffffffffffffffff16610c04909392919063ffffffff16565b6001600860016101000a81548160ff0219169083151502179055507fdc013715024602616599d62723b14eed2b92fbefe85c725f99328116524b23a260055442600260009054906101000a900473ffffffffffffffffffffffffffffffffffffffff1660405161054e939291906110fd565b60405180910390a17f203d82d8d99f63bfecc8335216735e0271df4249ea752b030f9ab305b94e5afe60405160405180910390a161058a610c86565b565b600860019054906101000a900460ff1681565b600860009054906101000a900460ff1681565b60075481565b60065481565b6105c6610bbe565b600860019054906101000a900460ff1615610616576040517f08c379a000000000000000000000000000000000000000000000000000000000815260040161060d90610f99565b60405180910390fd5b600860009054906101000a900460ff16610665576040517f08c379a000000000000000000000000000000000000000000000000000000000815260040161065c90611180565b60405180910390fd5b600260009054906101000a900473ffffffffffffffffffffffffffffffffffffffff1673ffffffffffffffffffffffffffffffffffffffff163373ffffffffffffffffffffffffffffffffffffffff16146106f5576040517f08c379a00000000000000000000000000000000000000000000000000000000081526004016106ec906111ec565b60405180910390fd5b600073ffffffffffffffffffffffffffffffffffffffff168273ffffffffffffffffffffffffffffffffffffffff1603610764576040517f08c379a000000000000000000000000000000000000000000000000000000000815260040161075b90611258565b60405180910390fd5b600081116107a7576040517f08c379a000000000000000000000000000000000000000000000000000000000815260040161079e906112c4565b60405180910390fd5b61081682600260009054906101000a900473ffffffffffffffffffffffffffffffffffffffff16837f000000000000000000000000000000000000000000000000000000000000000073ffffffffffffffffffffffffffffffffffffffff16610c04909392919063ffffffff16565b6000600260009054906101000a900473ffffffffffffffffffffffffffffffffffffffff16905082600260006101000a81548173ffffffffffffffffffffffffffffffffffffffff021916908373ffffffffffffffffffffffffffffffffffffffff1602179055508273ffffffffffffffffffffffffffffffffffffffff168173ffffffffffffffffffffffffffffffffffffffff167f258ee7ad74d3cc7ac5390bcd9a4f56b35d080961b690e51006da59cd0dae2dfd846040516108db9190610d4b565b60405180910390a3506108ec610c86565b5050565b600260009054906101000a900473ffffffffffffffffffffffffffffffffffffffff1681565b61091e610bbe565b600860019054906101000a900460ff161561096e576040517f08c379a000000000000000000000000000000000000000000000000000000000815260040161096590610f99565b60405180910390fd5b600860009054906101000a900460ff16156109be576040517f08c379a00000000000000000000000000000000000000000000000000000000081526004016109b590611330565b60405180910390fd5b600073ffffffffffffffffffffffffffffffffffffffff168173ffffffffffffffffffffffffffffffffffffffff1603610a2d576040517f08c379a0000000000000000000000000000000000000000000000000000000008152600401610a249061139c565b60405180910390fd5b610a9c817f00000000000000000000000000000000000000000000000000000000000000006007547f000000000000000000000000000000000000000000000000000000000000000073ffffffffffffffffffffffffffffffffffffffff16610c04909392919063ffffffff16565b80600160006101000a81548173ffffffffffffffffffffffffffffffffffffffff021916908373ffffffffffffffffffffffffffffffffffffffff16021790555080600260006101000a81548173ffffffffffffffffffffffffffffffffffffffff021916908373ffffffffffffffffffffffffffffffffffffffff1602179055506001600860006101000a81548160ff0219169083151502179055508073ffffffffffffffffffffffffffffffffffffffff167fa59f12e354e8cd10bb74c559844c2dd69a5458e31fe56c7594c62ca57480509a600754604051610b819190610d4b565b60405180910390a2610b91610c86565b50565b60045481565b7f000000000000000000000000000000000000000000000000000000000000000081565b600260005403610bfa576040517f3ee5aeb500000000000000000000000000000000000000000000000000000000815260040160405180910390fd5b6002600081905550565b610c80848573ffffffffffffffffffffffffffffffffffffffff166323b872dd868686604051602401610c39939291906113bc565b604051602081830303815290604052915060e01b6020820180517bffffffffffffffffffffffffffffffffffffffffffffffffffffffff8381831617835250505050610c90565b50505050565b6001600081905550565b600080602060008451602086016000885af180610cb3576040513d6000823e3d81fd5b3d925060005191505060008214610cce576001811415610cea565b60008473ffffffffffffffffffffffffffffffffffffffff163b145b15610d2c57836040517f5274afe7000000000000000000000000000000000000000000000000000000008152600401610d239190610da7565b60405180910390fd5b50505050565b6000819050919050565b610d4581610d32565b82525050565b6000602082019050610d606000830184610d3c565b92915050565b600073ffffffffffffffffffffffffffffffffffffffff82169050919050565b6000610d9182610d66565b9050919050565b610da181610d86565b82525050565b6000602082019050610dbc6000830184610d98565b92915050565b60008115159050919050565b610dd781610dc2565b82525050565b6000602082019050610df26000830184610dce565b92915050565b600080fd5b610e0681610d86565b8114610e1157600080fd5b50565b600081359050610e2381610dfd565b92915050565b610e3281610d32565b8114610e3d57600080fd5b50565b600081359050610e4f81610e29565b92915050565b60008060408385031215610e6c57610e6b610df8565b5b6000610e7a85828601610e14565b9250506020610e8b85828601610e40565b9150509250929050565b600060208284031215610eab57610eaa610df8565b5b6000610eb984828501610e14565b91505092915050565b6000819050919050565b6000610ee7610ee2610edd84610d66565b610ec2565b610d66565b9050919050565b6000610ef982610ecc565b9050919050565b6000610f0b82610eee565b9050919050565b610f1b81610f00565b82525050565b6000602082019050610f366000830184610f12565b92915050565b600082825260208201905092915050565b7f4e43442065787069726564000000000000000000000000000000000000000000600082015250565b6000610f83600b83610f3c565b9150610f8e82610f4d565b602082019050919050565b60006020820190508181036000830152610fb281610f76565b9050919050565b7f4f6e6c79206973737565722063616e2072656465656d00000000000000000000600082015250565b6000610fef601683610f3c565b9150610ffa82610fb9565b602082019050919050565b6000602082019050818103600083015261101e81610fe2565b9050919050565b7f4e6f742079657420697373756564000000000000000000000000000000000000600082015250565b600061105b600e83610f3c565b915061106682611025565b602082019050919050565b6000602082019050818103600083015261108a8161104e565b9050919050565b7f4e6f7420796574206d6174757265640000000000000000000000000000000000600082015250565b60006110c7600f83610f3c565b91506110d282611091565b602082019050919050565b600060208201905081810360008301526110f6816110ba565b9050919050565b60006060820190506111126000830186610d3c565b61111f6020830185610d3c565b61112c6040830184610d98565b949350505050565b7f4e4344206e6f7420697373756564000000000000000000000000000000000000600082015250565b600061116a600e83610f3c565b915061117582611134565b602082019050919050565b600060208201905081810360008301526111998161115d565b9050919050565b7f4f6e6c792063757272656e74206f776e65722063616e207472616e7366657200600082015250565b60006111d6601f83610f3c565b91506111e1826111a0565b602082019050919050565b60006020820190508181036000830152611205816111c9565b9050919050565b7f496e76616c6964206e6577206f776e6572000000000000000000000000000000600082015250565b6000611242601183610f3c565b915061124d8261120c565b602082019050919050565b6000602082019050818103600083015261127181611235565b9050919050565b7f5072696365206d757374206265203e2030000000000000000000000000000000600082015250565b60006112ae601183610f3c565b91506112b982611278565b602082019050919050565b600060208201905081810360008301526112dd816112a1565b9050919050565b7f416c726561647920697373756564000000000000000000000000000000000000600082015250565b600061131a600e83610f3c565b9150611325826112e4565b602082019050919050565b600060208201905081810360008301526113498161130d565b9050919050565b7f496e76616c696420696e766573746f7200000000000000000000000000000000600082015250565b6000611386601083610f3c565b915061139182611350565b602082019050919050565b600060208201905081810360008301526113b581611379565b9050919050565b60006060820190506113d16000830186610d98565b6113de6020830185610d98565b6113eb6040830184610d3c565b94935050505056fea2646970667358221220a6df5c4de392e32d5f71d5f11286a519fe05755a24cb3f375a2710be3b2d30d864736f6c63430008150033",
  "linkReferences": {},
  "deployedLinkReferences": {}
}