{
  "_format": "hh-sol-artifact-1",
  "contractName": "AnnuityToken",
  "sourceName": "contracts/AnnuityToken.sol",
  "abi": [
    {
      "inputs": [
        {
          "internalType": "address",
          "name": "_issuer",
          "type": "address"
        },
        {
          "internalType": "uint256",
          "name": "_startDate",
          "type": "uint256"
        },
        {
          "internalType": "uint256",
          "name": "_maturityDate",
          "type": "uint256"
        },
        {
          "internalType": "uint256",
          "name": "_faceValue",
          "type": "uint256"
        },
        {
          "internalType": "uint256",
          "name": "_interestRate",
          "type": "uint256"
        },
        {
          "internalType": "uint256[]",
          "name": "_couponDates",
          "type": "uint256[]"
        },
        {
          "internalType": "uint256[]",
          "name": "_couponValues",
          "type": "uint256[]"
        },
        {
          "internalType": "address",
          "name": "_stablecoin",
          "type": "address"
        }
      ],
      "stateMutability": "nonpayable",
      "type": "constructor"
    },
    {
      "inputs": [],
      "name": "ReentrancyGuardReentrantCall",
      "type": "error"
    },
    {
      "inputs": [
        {
          "internalType": "address",
          "name": "token",
          "type": "address"
        }
      ],
      "name": "SafeERC20FailedOperation",
      "type": "error"
    },
    {
      "anonymous": false,
      "inputs": [
        {
          "indexed": true,
          "internalType": "address",
          "name": "from",
          "type": "address"
        },
        {
          "indexed": true,
          "internalType": "address",
          "name": "to",
          "type": "address"
        },
        {
          "indexed": false,
          "internalType": "uint256",
          "name": "price",
          "type": "uint256"
        }
      ],
      "name": "AnnuityTransferred",
      "type": "event"
    },
    {
      "anonymous": false,
      "inputs": [
        {
          "indexed": true,
          "internalType": "uint256",
          "name": "index",
          "type": "uint256"
        },
        {
          "indexed": false,
          "internalType": "uint256",
          "name": "value",
          "type": "uint256"
        },
        {
          "indexed": false,
          "internalType": "uint256",
          "name": "timestamp",
          "type": "uint256"
        },
        {
          "indexed": false,
          "internalType": "address",
          "name": "to",
          "type": "address"
        }
      ],
      "name": "CouponPaid",
      "type": "event"
    },
    {
      "anonymous": false,
      "inputs": [],
      "name": "Expired",
      "type": "event"
    },
    {
      "anonymous": false,
      "inputs": [
        {
          "indexed": true,
          "internalType": "address",
          "name": "investor",
          "type": "address"
        },
        {
          "indexed": false,
          "internalType": "uint256",
          "name": "faceValue",
          "type": "uint256"
        }
      ],
      "name": "Issued",
      "type": "event"
    },
    {
      "anonymous": false,
      "inputs": [
        {
          "indexed": false,
          "internalType": "uint256",
          "name": "faceValue",
          "type": "uint256"
        },
        {
          "indexed": false,
          "internalType": "uint256",
          "name": "timestamp",
          "type": "uint256"
        },
        {
          "indexed": false,
          "internalType": "address",
          "name": "to",
          "type": "address"
        }
      ],
      "name": "Redeemed",
      "type": "event"
    },
    {
      "inputs": [
        {
          "internalType": "address",
          "name": "_investor",
          "type": "address"
        }
      ],
      "name": "acceptAndIssue",
      "outputs": [],
      "stateMutability": "nonpayable",
      "type": "function"
    },
    {
      "inputs": [
        {
          "internalType": "uint256",
          "name": "",
          "type": "uint256"
        }
      ],
      "name": "couponDates",
      "outputs": [
        {
          "internalType": "uint256",
          "name": "",
          "type": "uint256"
        }
      ],
      "stateMutability": "view",
      "type": "function"
    },
    {
      "inputs": [
        {
          "internalType": "uint256",
          "name": "",
          "type": "uint256"
        }
      ],
      "name": "couponPaid",
      "outputs": [
        {
          "internalType": "bool",
          "name": "",
          "type": "bool"
        }
      ],
      "stateMutability": "view",
      "type": "function"
    },
    {
      "inputs": [
        {
          "internalType": "uint256",
          "name": "",
          "type": "uint256"
        }
      ],
      "name": "couponValues",
      "outputs": [
        {
          "internalType": "uint256",
          "name": "",
          "type": "uint256"
        }
      ],
      "stateMutability": "view",
      "type": "function"
    },
    {
      "inputs": [],
      "name": "currentOwner",
      "outputs": [
        {
          "internalType": "address",
          "name": "",
          "type": "address"
        }
      ],
      "stateMutability": "view",
      "type": "function"
    },
    {
      "inputs": [],
      "name": "expired",
      "outputs": [
        {
          "internalType": "bool",
          "name": "",
          "type": "bool"
        }
      ],
      "stateMutability": "view",
      "type": "function"
    },
    {
      "inputs": [],
      "name": "faceValue",
      "outputs": [
        {
          "internalType": "uint256",
          "name": "",
          "type": "uint256"
        }
      ],
      "stateMutability": "view",
      "type": "function"
    },
    {
      "inputs": [],
      "name": "getCouponCount",
      "outputs": [
        {
          "internalType": "uint256",
          "name": "",
          "type": "uint256"
        }
      ],
      "stateMutability": "view",
      "type": "function"
    },
    {
      "inputs": [
        {
          "internalType": "uint256",
          "name": "index",
          "type": "uint256"
        }
      ],
      "name": "getCouponDate",
      "outputs": [
        {
          "internalType": "uint256",
          "name": "",
          "type": "uint256"
        }
      ],
      "stateMutability": "view",
      "type": "function"
    },
    {
      "inputs": [
        {
          "internalType": "uint256",
          "name": "index",
          "type": "uint256"
        }
      ],
      "name": "getCouponValue",
      "outputs": [
        {
          "internalType": "uint256",
          "name": "",
          "type": "uint256"
        }
      ],
      "stateMutability": "view",
      "type": "function"
    },
    {
      "inputs": [],
      "name": "interestRate",
      "outputs": [
        {
          "internalType": "uint256",
          "name": "",
          "type": "uint256"
        }
      ],
      "stateMutability": "view",
      "type": "function"
    },
    {
      "inputs": [],
      "name": "investor",
      "outputs": [
        {
          "internalType": "address",
          "name": "",
          "type": "address"
        }
      ],
      "stateMutability": "view",
      "type": "function"
    },
    {
      "inputs": [
        {
          "internalType": "uint256",
          "name": "index",
          "type": "uint256"
        }
      ],
      "name": "isCouponPaid",
      "outputs": [
        {
          "internalType": "bool",
          "name": "",
          "type": "bool"
        }
      ],
      "stateMutability": "view",
      "type": "function"
    },
    {
      "inputs": [],
      "name": "issued",
      "outputs": [
        {
          "internalType": "bool",
          "name": "",
          "type": "bool"
        }
      ],
      "stateMutability": "view",
      "type": "function"
    },
    {
      "inputs": [],
      "name": "issuer",
      "outputs": [
        {
          "internalType": "address",
          "name": "",
          "type": "address"
        }
      ],
      "stateMutability": "view",
      "type": "function"
    },
    {
      "inputs": [],
      "name": "maturityDate",
      "outputs": [
        {
          "internalType": "uint256",
          "name": "",
          "type": "uint256"
        }
      ],
      "stateMutability": "view",
      "type": "function"
    },
    {
      "inputs": [
        {
          "internalType": "uint256",
          "name": "index",
          "type": "uint256"
        }
      ],
      "name": "payCoupon",
      "outputs": [],
      "stateMutability": "nonpayable",
      "type": "function"
    },
    {
      "inputs": [],
      "name": "redeemMaturity",
      "outputs": [],
      "stateMutability": "nonpayable",
      "type": "function"
    },
    {
      "inputs": [],
      "name": "stablecoin",
      "outputs": [
        {
          "internalType": "contract IERC20",
          "name": "",
          "type": "address"
        }
      ],
      "stateMutability": "view",
      "type": "function"
    },
    {
      "inputs": [],
      "name": "startDate",
      "outputs": [
        {
          "internalType": "uint256",
          "name": "",
          "type": "uint256"
        }
      ],
      "stateMutability": "view",
      "type": "function"
    },
    {
      "inputs": [
        {
          "internalType": "address",
          "name": "newOwner",
          "type": "address"
        },
        {
          "internalType": "uint256",
          "name": "price",
          "type": "uint256"
        }
      ],
      "name": "transferAnnuity",
      "outputs": [],
      "stateMutability": "nonpayable",
      "type": "function"
    }
  ],
  "bytecode": "0x60c06040523480156200001157600080fd5b50604051620023ef380380620023ef8339818101604052810190620000379190620004c8565b6001600081905550600073ffffffffffffffffffffffffffffffffffffffff168873ffffffffffffffffffffffffffffffffffffffff1603620000b1576040517f08c379a0000000000000000000000000000000000000000000000000000000008152600401620000a89062000630565b60405180910390fd5b600073ffffffffffffffffffffffffffffffffffffffff168173ffffffffffffffffffffffffffffffffffffffff160362000123576040517f08c379a00000000000000000000000000000000000000000000000000000000081526004016200011a90620006a2565b60405180910390fd5b81518351146200016a576040517f08c379a0000000000000000000000000000000000000000000000000000000008152600401620001619062000714565b60405180910390fd5b8773ffffffffffffffffffffffffffffffffffffffff1660808173ffffffffffffffffffffffffffffffffffffffff1681525050866003819055508560048190555084600581905550836006819055508260079080519060200190620001d29291906200022e565b508160089080519060200190620001eb9291906200022e565b508073ffffffffffffffffffffffffffffffffffffffff1660a08173ffffffffffffffffffffffffffffffffffffffff1681525050505050505050505062000736565b8280548282559060005260206000209081019282156200026d579160200282015b828111156200026c5782518255916020019190600101906200024f565b5b5090506200027c919062000280565b5090565b5b808211156200029b57600081600090555060010162000281565b5090565b6000604051905090565b600080fd5b600080fd5b600073ffffffffffffffffffffffffffffffffffffffff82169050919050565b6000620002e082620002b3565b9050919050565b620002f281620002d3565b8114620002fe57600080fd5b50565b6000815190506200031281620002e7565b92915050565b6000819050919050565b6200032d8162000318565b81146200033957600080fd5b50565b6000815190506200034d8162000322565b92915050565b600080fd5b6000601f19601f8301169050919050565b7f4e487b7100000000000000000000000000000000000000000000000000000000600052604160045260246000fd5b620003a38262000358565b810181811067ffffffffffffffff82111715620003c557620003c462000369565b5b80604052505050565b6000620003da6200029f565b9050620003e8828262000398565b919050565b600067ffffffffffffffff8211156200040b576200040a62000369565b5b602082029050602081019050919050565b600080fd5b6000620004386200043284620003ed565b620003ce565b905080838252602082019050602084028301858111156200045e576200045d6200041c565b5b835b818110156200048b57806200047688826200033c565b84526020840193505060208101905062000460565b5050509392505050565b600082601f830112620004ad57620004ac62000353565b5b8151620004bf84826020860162000421565b91505092915050565b600080600080600080600080610100898b031215620004ec57620004eb620002a9565b5b6000620004fc8b828c0162000301565b98505060206200050f8b828c016200033c565b9750506040620005228b828c016200033c565b9650506060620005358b828c016200033c565b9550506080620005488b828c016200033c565b94505060a089015167ffffffffffffffff8111156200056c576200056b620002ae565b5b6200057a8b828c0162000495565b93505060c089015167ffffffffffffffff8111156200059e576200059d620002ae565b5b620005ac8b828c0162000495565b92505060e0620005bf8b828c0162000301565b9150509295985092959890939650565b600082825260208201905092915050565b7f496e76616c696420697373756572000000000000000000000000000000000000600082015250565b600062000618600e83620005cf565b91506200062582620005e0565b602082019050919050565b600060208201905081810360008301526200064b8162000609565b9050919050565b7f496e76616c696420737461626c65636f696e0000000000000000000000000000600082015250565b60006200068a601283620005cf565b9150620006978262000652565b602082019050919050565b60006020820190508181036000830152620006bd816200067b565b9050919050565b7f4d69736d61746368656420636f75706f6e730000000000000000000000000000600082015250565b6000620006fc601283620005cf565b91506200070982620006c4565b602082019050919050565b600060208201905081810360008301526200072f81620006ed565b9050919050565b60805160a051611c5b620007946000396000818161062e01528181610a1b01528181610c7a01528181610fca01526110f101526000818161040c015281816105320152818161087f015281816109b80152610c560152611c5b6000f3fe608060405234801561001057600080fd5b50600436106101375760003560e01c80635f5b0146116100b8578063b387ef921161007c578063b387ef9214610342578063bf01693014610360578063d057ee9b1461037c578063d59624b414610398578063e9cbd822146103b6578063ec18efc4146103d457610137565b80635f5b0146146102785780636392d0dc146102a85780637c3a00fd146102d85780638bb2834b146102f6578063932e2b861461032657610137565b806347ccb4de116100ff57806347ccb4de146101d25780634885d3f2146102025780634c2067c71461020c57806353ca516d1461022a5780635f1ff5491461025a57610137565b80630b97bc861461013c5780631d1438481461015a5780631e0018d61461017857806344fd9caa14610196578063468bb240146101b4575b600080fd5b610144610404565b604051610151919061138e565b60405180910390f35b61016261040a565b60405161016f91906113ea565b60405180910390f35b61018061042e565b60405161018d91906113ea565b60405180910390f35b61019e610454565b6040516101ab919061138e565b60405180910390f35b6101bc61045a565b6040516101c9919061138e565b60405180910390f35b6101ec60048036038101906101e79190611436565b610467565b6040516101f9919061147e565b60405180910390f35b61020a6104d8565b005b610214610722565b604051610221919061147e565b60405180910390f35b610244600480360381019061023f9190611436565b610735565b604051610251919061138e565b60405180910390f35b6102626107a4565b60405161026f919061147e565b60405180910390f35b610292600480360381019061028d9190611436565b6107b7565b60405161029f919061138e565b60405180910390f35b6102c260048036038101906102bd9190611436565b6107db565b6040516102cf919061138e565b60405180910390f35b6102e06107ff565b6040516102ed919061138e565b60405180910390f35b610310600480360381019061030b9190611436565b610805565b60405161031d919061147e565b60405180910390f35b610340600480360381019061033b9190611436565b610825565b005b61034a610b13565b60405161035791906113ea565b60405180910390f35b61037a600480360381019061037591906114c5565b610b39565b005b610396600480360381019061039191906114f2565b610db7565b005b6103a06110e9565b6040516103ad919061138e565b60405180910390f35b6103be6110ef565b6040516103cb9190611591565b60405180910390f35b6103ee60048036038101906103e99190611436565b611113565b6040516103fb919061138e565b60405180910390f35b60035481565b7f000000000000000000000000000000000000000000000000000000000000000081565b600160009054906101000a900473ffffffffffffffffffffffffffffffffffffffff1681565b60055481565b6000600880549050905090565b600060088054905082106104b0576040517f08c379a00000000000000000000000000000000000000000000000000000000081526004016104a790611609565b60405180910390fd5b600a600083815260200190815260200160002060009054906101000a900460ff169050919050565b6104e0611182565b600960019054906101000a900460ff1615610530576040517f08c379a000000000000000000000000000000000000000000000000000000000815260040161052790611675565b60405180910390fd5b7f000000000000000000000000000000000000000000000000000000000000000073ffffffffffffffffffffffffffffffffffffffff163373ffffffffffffffffffffffffffffffffffffffff16146105be576040517f08c379a00000000000000000000000000000000000000000000000000000000081526004016105b5906116e1565b60405180910390fd5b600454421015610603576040517f08c379a00000000000000000000000000000000000000000000000000000000081526004016105fa9061174d565b60405180910390fd5b610672600260009054906101000a900473ffffffffffffffffffffffffffffffffffffffff166005547f000000000000000000000000000000000000000000000000000000000000000073ffffffffffffffffffffffffffffffffffffffff166111c89092919063ffffffff16565b6001600960016101000a81548160ff0219169083151502179055507fdc013715024602616599d62723b14eed2b92fbefe85c725f99328116524b23a260055442600260009054906101000a900473ffffffffffffffffffffffffffffffffffffffff166040516106e49392919061176d565b60405180910390a17f203d82d8d99f63bfecc8335216735e0271df4249ea752b030f9ab305b94e5afe60405160405180910390a1610720611247565b565b600960019054906101000a900460ff1681565b6000600880549050821061077e576040517f08c379a000000000000000000000000000000000000000000000000000000000815260040161077590611609565b60405180910390fd5b60088281548110610792576107916117a4565b5b90600052602060002001549050919050565b600960009054906101000a900460ff1681565b600781815481106107c757600080fd5b906000526020600020016000915090505481565b600881815481106107eb57600080fd5b906000526020600020016000915090505481565b60065481565b600a6020528060005260406000206000915054906101000a900460ff1681565b61082d611182565b600960019054906101000a900460ff161561087d576040517f08c379a000000000000000000000000000000000000000000000000000000000815260040161087490611675565b60405180910390fd5b7f000000000000000000000000000000000000000000000000000000000000000073ffffffffffffffffffffffffffffffffffffffff163373ffffffffffffffffffffffffffffffffffffffff161461090b576040517f08c379a00000000000000000000000000000000000000000000000000000000081526004016109029061181f565b60405180910390fd5b6008805490508110610952576040517f08c379a00000000000000000000000000000000000000000000000000000000081526004016109499061188b565b60405180910390fd5b600a600082815260200190815260200160002060009054906101000a900460ff16156109b3576040517f08c379a00000000000000000000000000000000000000000000000000000000081526004016109aa906118f7565b60405180910390fd5b610a607f0000000000000000000000000000000000000000000000000000000000000000600260009054906101000a900473ffffffffffffffffffffffffffffffffffffffff1660088481548110610a0e57610a0d6117a4565b5b90600052602060002001547f000000000000000000000000000000000000000000000000000000000000000073ffffffffffffffffffffffffffffffffffffffff16611251909392919063ffffffff16565b6001600a600083815260200190815260200160002060006101000a81548160ff021916908315150217905550807f9bf77f590a6d654787b0bec60b5a5bc13ff34350aff18c30ee87a57228ef7f1360088381548110610ac257610ac16117a4565b5b906000526020600020015442600260009054906101000a900473ffffffffffffffffffffffffffffffffffffffff16604051610b009392919061176d565b60405180910390a2610b10611247565b50565b600260009054906101000a900473ffffffffffffffffffffffffffffffffffffffff1681565b610b41611182565b600960019054906101000a900460ff1615610b91576040517f08c379a0000000000000000000000000000000000000000000000000000000008152600401610b8890611675565b60405180910390fd5b600960009054906101000a900460ff1615610be1576040517f08c379a0000000000000000000000000000000000000000000000000000000008152600401610bd890611963565b60405180910390fd5b600073ffffffffffffffffffffffffffffffffffffffff168173ffffffffffffffffffffffffffffffffffffffff1603610c50576040517f08c379a0000000000000000000000000000000000000000000000000000000008152600401610c47906119cf565b60405180910390fd5b610cbf817f00000000000000000000000000000000000000000000000000000000000000006005547f000000000000000000000000000000000000000000000000000000000000000073ffffffffffffffffffffffffffffffffffffffff16611251909392919063ffffffff16565b80600160006101000a81548173ffffffffffffffffffffffffffffffffffffffff021916908373ffffffffffffffffffffffffffffffffffffffff16021790555080600260006101000a81548173ffffffffffffffffffffffffffffffffffffffff021916908373ffffffffffffffffffffffffffffffffffffffff1602179055506001600960006101000a81548160ff0219169083151502179055508073ffffffffffffffffffffffffffffffffffffffff167fa59f12e354e8cd10bb74c559844c2dd69a5458e31fe56c7594c62ca57480509a600554604051610da4919061138e565b60405180910390a2610db4611247565b50565b610dbf611182565b600960019054906101000a900460ff1615610e0f576040517f08c379a0000000000000000000000000000000000000000000000000000000008152600401610e0690611675565b60405180910390fd5b600960009054906101000a900460ff16610e5e576040517f08c379a0000000000000000000000000000000000000000000000000000000008152600401610e5590611a3b565b60405180910390fd5b600260009054906101000a900473ffffffffffffffffffffffffffffffffffffffff1673ffffffffffffffffffffffffffffffffffffffff163373ffffffffffffffffffffffffffffffffffffffff1614610eee576040517f08c379a0000000000000000000000000000000000000000000000000000000008152600401610ee590611acd565b60405180910390fd5b600073ffffffffffffffffffffffffffffffffffffffff168273ffffffffffffffffffffffffffffffffffffffff1603610f5d576040517f08c379a0000000000000000000000000000000000000000000000000000000008152600401610f5490611b39565b60405180910390fd5b60008111610fa0576040517f08c379a0000000000000000000000000000000000000000000000000000000008152600401610f9790611ba5565b60405180910390fd5b61100f82600260009054906101000a900473ffffffffffffffffffffffffffffffffffffffff16837f000000000000000000000000000000000000000000000000000000000000000073ffffffffffffffffffffffffffffffffffffffff16611251909392919063ffffffff16565b6000600260009054906101000a900473ffffffffffffffffffffffffffffffffffffffff16905082600260006101000a81548173ffffffffffffffffffffffffffffffffffffffff021916908373ffffffffffffffffffffffffffffffffffffffff1602179055508273ffffffffffffffffffffffffffffffffffffffff168173ffffffffffffffffffffffffffffffffffffffff167fa44f4ec70eb109c4768a67ad13a74574308376897ef48146365a7e65bbedf240846040516110d4919061138e565b60405180910390a3506110e5611247565b5050565b60045481565b7f000000000000000000000000000000000000000000000000000000000000000081565b6000600780549050821061115c576040517f08c379a000000000000000000000000000000000000000000000000000000000815260040161115390611609565b60405180910390fd5b600782815481106111705761116f6117a4565b5b90600052602060002001549050919050565b6002600054036111be576040517f3ee5aeb500000000000000000000000000000000000000000000000000000000815260040160405180910390fd5b6002600081905550565b611242838473ffffffffffffffffffffffffffffffffffffffff1663a9059cbb85856040516024016111fb929190611bc5565b604051602081830303815290604052915060e01b6020820180517bffffffffffffffffffffffffffffffffffffffffffffffffffffffff83818316178352505050506112d3565b505050565b6001600081905550565b6112cd848573ffffffffffffffffffffffffffffffffffffffff166323b872dd86868660405160240161128693929190611bee565b604051602081830303815290604052915060e01b6020820180517bffffffffffffffffffffffffffffffffffffffffffffffffffffffff83818316178352505050506112d3565b50505050565b600080602060008451602086016000885af1806112f6576040513d6000823e3d81fd5b3d92506000519150506000821461131157600181141561132d565b60008473ffffffffffffffffffffffffffffffffffffffff163b145b1561136f57836040517f5274afe700000000000000000000000000000000000000000000000000000000815260040161136691906113ea565b60405180910390fd5b50505050565b6000819050919050565b61138881611375565b82525050565b60006020820190506113a3600083018461137f565b92915050565b600073ffffffffffffffffffffffffffffffffffffffff82169050919050565b60006113d4826113a9565b9050919050565b6113e4816113c9565b82525050565b60006020820190506113ff60008301846113db565b92915050565b600080fd5b61141381611375565b811461141e57600080fd5b50565b6000813590506114308161140a565b92915050565b60006020828403121561144c5761144b611405565b5b600061145a84828501611421565b91505092915050565b60008115159050919050565b61147881611463565b82525050565b6000602082019050611493600083018461146f565b92915050565b6114a2816113c9565b81146114ad57600080fd5b50565b6000813590506114bf81611499565b92915050565b6000602082840312156114db576114da611405565b5b60006114e9848285016114b0565b91505092915050565b6000806040838503121561150957611508611405565b5b6000611517858286016114b0565b925050602061152885828601611421565b9150509250929050565b6000819050919050565b600061155761155261154d846113a9565b611532565b6113a9565b9050919050565b60006115698261153c565b9050919050565b600061157b8261155e565b9050919050565b61158b81611570565b82525050565b60006020820190506115a66000830184611582565b92915050565b600082825260208201905092915050565b7f496e76616c696420696e64657800000000000000000000000000000000000000600082015250565b60006115f3600d836115ac565b91506115fe826115bd565b602082019050919050565b60006020820190508181036000830152611622816115e6565b9050919050565b7f416e6e7569747920657870697265640000000000000000000000000000000000600082015250565b600061165f600f836115ac565b915061166a82611629565b602082019050919050565b6000602082019050818103600083015261168e81611652565b9050919050565b7f4f6e6c79206973737565722063616e2072656465656d00000000000000000000600082015250565b60006116cb6016836115ac565b91506116d682611695565b602082019050919050565b600060208201905081810360008301526116fa816116be565b9050919050565b7f4e6f7420796574206d6174757265640000000000000000000000000000000000600082015250565b6000611737600f836115ac565b915061174282611701565b602082019050919050565b600060208201905081810360008301526117668161172a565b9050919050565b6000606082019050611782600083018661137f565b61178f602083018561137f565b61179c60408301846113db565b949350505050565b7f4e487b7100000000000000000000000000000000000000000000000000000000600052603260045260246000fd5b7f4f6e6c79206973737565722063616e2070617920636f75706f6e730000000000600082015250565b6000611809601b836115ac565b9150611814826117d3565b602082019050919050565b60006020820190508181036000830152611838816117fc565b9050919050565b7f496e76616c696420636f75706f6e20696e646578000000000000000000000000600082015250565b60006118756014836115ac565b91506118808261183f565b602082019050919050565b600060208201905081810360008301526118a481611868565b9050919050565b7f436f75706f6e20616c7265616479207061696400000000000000000000000000600082015250565b60006118e16013836115ac565b91506118ec826118ab565b602082019050919050565b60006020820190508181036000830152611910816118d4565b9050919050565b7f416c726561647920697373756564000000000000000000000000000000000000600082015250565b600061194d600e836115ac565b915061195882611917565b602082019050919050565b6000602082019050818103600083015261197c81611940565b9050919050565b7f496e76616c696420696e766573746f7200000000000000000000000000000000600082015250565b60006119b96010836115ac565b91506119c482611983565b602082019050919050565b600060208201905081810360008301526119e8816119ac565b9050919050565b7f416e6e75697479206e6f74206973737565640000000000000000000000000000600082015250565b6000611a256012836115ac565b9150611a30826119ef565b602082019050919050565b60006020820190508181036000830152611a5481611a18565b9050919050565b7f4f6e6c792063757272656e74206f776e65722063616e20696e6974696174652060008201527f7472616e73666572000000000000000000000000000000000000000000000000602082015250565b6000611ab76028836115ac565b9150611ac282611a5b565b604082019050919050565b60006020820190508181036000830152611ae681611aaa565b9050919050565b7f496e76616c6964206e6577206f776e6572000000000000000000000000000000600082015250565b6000611b236011836115ac565b9150611b2e82611aed565b602082019050919050565b60006020820190508181036000830152611b5281611b16565b9050919050565b7f5072696365206d757374206265203e2030000000000000000000000000000000600082015250565b6000611b8f6011836115ac565b9150611b9a82611b59565b602082019050919050565b60006020820190508181036000830152611bbe81611b82565b9050919050565b6000604082019050611bda60008301856113db565b611be7602083018461137f565b9392505050565b6000606082019050611c0360008301866113db565b611c1060208301856113db565b611c1d604083018461137f565b94935050505056fea2646970667358221220543f5b650f15be065525a97d847c9766651761f163d0968ebeb85e0ec98e6d1364736f6c63430008150033",
  "linkReferences": {},
  "deployedLinkReferences": {}
}