{
  "contractName": "AnnuityToken",
  "abi": [
    {
      "inputs": [
        {
          "internalType": "address",
          "name": "_issuer",
          "type": "address"
        },
        {
          "internalType": "uint256",
          "name": "_startDate",
          "type": "uint256"
        },
        {
          "internalType": "uint256",
          "name": "_maturityDate",
          "type": "uint256"
        },
        {
          "internalType": "uint256",
          "name": "_faceValue",
          "type": "uint256"
        },
        {
          "internalType": "uint256",
          "name": "_interestRate",
          "type": "uint256"
        },
        {
          "internalType": "uint256[]",
          "name": "_couponDates",
          "type": "uint256[]"
        },
        {
          "internalType": "uint256[]",
          "name": "_couponValues",
          "type": "uint256[]"
        },
        {
          "internalType": "address",
          "name": "_stablecoin",
          "type": "address"
        }
      ],
      "stateMutability": "nonpayable",
      "type": "constructor"
    },
    {
      "inputs": [],
      "name": "ReentrancyGuardReentrantCall",
      "type": "error"
    },
    {
      "inputs": [
        {
          "internalType": "address",
          "name": "token",
          "type": "address"
        }
      ],
      "name": "SafeERC20FailedOperation",
      "type": "error"
    },
    {
      "anonymous": false,
      "inputs": [
        {
          "indexed": true,
          "internalType": "address",
          "name": "from",
          "type": "address"
        },
        {
          "indexed": true,
          "internalType": "address",
          "name": "to",
          "type": "address"
        },
        {
          "indexed": false,
          "internalType": "uint256",
          "name": "price",
          "type": "uint256"
        }
      ],
      "name": "AnnuityTransferred",
      "type": "event"
    },
    {
      "anonymous": false,
      "inputs": [
        {
          "indexed": true,
          "internalType": "uint256",
          "name": "index",
          "type": "uint256"
        },
        {
          "indexed": false,
          "internalType": "uint256",
          "name": "value",
          "type": "uint256"
        },
        {
          "indexed": false,
          "internalType": "uint256",
          "name": "timestamp",
          "type": "uint256"
        },
        {
          "indexed": false,
          "internalType": "address",
          "name": "to",
          "type": "address"
        }
      ],
      "name": "CouponPaid",
      "type": "event"
    },
    {
      "anonymous": false,
      "inputs": [],
      "name": "Expired",
      "type": "event"
    },
    {
      "anonymous": false,
      "inputs": [
        {
          "indexed": true,
          "internalType": "address",
          "name": "investor",
          "type": "address"
        },
        {
          "indexed": false,
          "internalType": "uint256",
          "name": "faceValue",
          "type": "uint256"
        }
      ],
      "name": "Issued",
      "type": "event"
    },
    {
      "anonymous": false,
      "inputs": [
        {
          "indexed": false,
          "internalType": "uint256",
          "name": "faceValue",
          "type": "uint256"
        },
        {
          "indexed": false,
          "internalType": "uint256",
          "name": "timestamp",
          "type": "uint256"
        },
        {
          "indexed": false,
          "internalType": "address",
          "name": "to",
          "type": "address"
        }
      ],
      "name": "Redeemed",
      "type": "event"
    },
    {
      "inputs": [
        {
          "internalType": "uint256",
          "name": "",
          "type": "uint256"
        }
      ],
      "name": "couponDates",
      "outputs": [
        {
          "internalType": "uint256",
          "name": "",
          "type": "uint256"
        }
      ],
      "stateMutability": "view",
      "type": "function",
      "constant": true
    },
    {
      "inputs": [
        {
          "internalType": "uint256",
          "name": "",
          "type": "uint256"
        }
      ],
      "name": "couponPaid",
      "outputs": [
        {
          "internalType": "bool",
          "name": "",
          "type": "bool"
        }
      ],
      "stateMutability": "view",
      "type": "function",
      "constant": true
    },
    {
      "inputs": [
        {
          "internalType": "uint256",
          "name": "",
          "type": "uint256"
        }
      ],
      "name": "couponValues",
      "outputs": [
        {
          "internalType": "uint256",
          "name": "",
          "type": "uint256"
        }
      ],
      "stateMutability": "view",
      "type": "function",
      "constant": true
    },
    {
      "inputs": [],
      "name": "currentOwner",
      "outputs": [
        {
          "internalType": "address",
          "name": "",
          "type": "address"
        }
      ],
      "stateMutability": "view",
      "type": "function",
      "constant": true
    },
    {
      "inputs": [],
      "name": "expired",
      "outputs": [
        {
          "internalType": "bool",
          "name": "",
          "type": "bool"
        }
      ],
      "stateMutability": "view",
      "type": "function",
      "constant": true
    },
    {
      "inputs": [],
      "name": "faceValue",
      "outputs": [
        {
          "internalType": "uint256",
          "name": "",
          "type": "uint256"
        }
      ],
      "stateMutability": "view",
      "type": "function",
      "constant": true
    },
    {
      "inputs": [],
      "name": "interestRate",
      "outputs": [
        {
          "internalType": "uint256",
          "name": "",
          "type": "uint256"
        }
      ],
      "stateMutability": "view",
      "type": "function",
      "constant": true
    },
    {
      "inputs": [],
      "name": "investor",
      "outputs": [
        {
          "internalType": "address",
          "name": "",
          "type": "address"
        }
      ],
      "stateMutability": "view",
      "type": "function",
      "constant": true
    },
    {
      "inputs": [],
      "name": "issued",
      "outputs": [
        {
          "internalType": "bool",
          "name": "",
          "type": "bool"
        }
      ],
      "stateMutability": "view",
      "type": "function",
      "constant": true
    },
    {
      "inputs": [],
      "name": "issuer",
      "outputs": [
        {
          "internalType": "address",
          "name": "",
          "type": "address"
        }
      ],
      "stateMutability": "view",
      "type": "function",
      "constant": true
    },
    {
      "inputs": [],
      "name": "maturityDate",
      "outputs": [
        {
          "internalType": "uint256",
          "name": "",
          "type": "uint256"
        }
      ],
      "stateMutability": "view",
      "type": "function",
      "constant": true
    },
    {
      "inputs": [],
      "name": "stablecoin",
      "outputs": [
        {
          "internalType": "contract IERC20",
          "name": "",
          "type": "address"
        }
      ],
      "stateMutability": "view",
      "type": "function",
      "constant": true
    },
    {
      "inputs": [],
      "name": "startDate",
      "outputs": [
        {
          "internalType": "uint256",
          "name": "",
          "type": "uint256"
        }
      ],
      "stateMutability": "view",
      "type": "function",
      "constant": true
    },
    {
      "inputs": [
        {
          "internalType": "address",
          "name": "_investor",
          "type": "address"
        }
      ],
      "name": "acceptAndIssue",
      "outputs": [],
      "stateMutability": "nonpayable",
      "type": "function"
    },
    {
      "inputs": [
        {
          "internalType": "uint256",
          "name": "index",
          "type": "uint256"
        }
      ],
      "name": "payCoupon",
      "outputs": [],
      "stateMutability": "nonpayable",
      "type": "function"
    },
    {
      "inputs": [
        {
          "internalType": "address",
          "name": "newOwner",
          "type": "address"
        },
        {
          "internalType": "uint256",
          "name": "price",
          "type": "uint256"
        }
      ],
      "name": "transferAnnuity",
      "outputs": [],
      "stateMutability": "nonpayable",
      "type": "function"
    },
    {
      "inputs": [],
      "name": "redeemMaturity",
      "outputs": [],
      "stateMutability": "nonpayable",
      "type": "function"
    },
    {
      "inputs": [],
      "name": "getCouponCount",
      "outputs": [
        {
          "internalType": "uint256",
          "name": "",
          "type": "uint256"
        }
      ],
      "stateMutability": "view",
      "type": "function",
      "constant": true
    },
    {
      "inputs": [
        {
          "internalType": "uint256",
          "name": "index",
          "type": "uint256"
        }
      ],
      "name": "getCouponValue",
      "outputs": [
        {
          "internalType": "uint256",
          "name": "",
          "type": "uint256"
        }
      ],
      "stateMutability": "view",
      "type": "function",
      "constant": true
    },
    {
      "inputs": [
        {
          "internalType": "uint256",
          "name": "index",
          "type": "uint256"
        }
      ],
      "name": "getCouponDate",
      "outputs": [
        {
          "internalType": "uint256",
          "name": "",
          "type": "uint256"
        }
      ],
      "stateMutability": "view",
      "type": "function",
      "constant": true
    }
  ],
  "bytecode": "0x60c060405234801562000010575f80fd5b506040516200227d3803806200227d8339818101604052810190620000369190620004ad565b60015f819055505f73ffffffffffffffffffffffffffffffffffffffff168873ffffffffffffffffffffffffffffffffffffffff1603620000ae576040517f08c379a0000000000000000000000000000000000000000000000000000000008152600401620000a5906200060d565b60405180910390fd5b5f73ffffffffffffffffffffffffffffffffffffffff168173ffffffffffffffffffffffffffffffffffffffff16036200011f576040517f08c379a000000000000000000000000000000000000000000000000000000000815260040162000116906200067b565b60405180910390fd5b815183511462000166576040517f08c379a00000000000000000000000000000000000000000000000000000000081526004016200015d90620006e9565b60405180910390fd5b8773ffffffffffffffffffffffffffffffffffffffff1660808173ffffffffffffffffffffffffffffffffffffffff1681525050866003819055508560048190555084600581905550836006819055508260079080519060200190620001ce9291906200022a565b508160089080519060200190620001e79291906200022a565b508073ffffffffffffffffffffffffffffffffffffffff1660a08173ffffffffffffffffffffffffffffffffffffffff1681525050505050505050505062000709565b828054828255905f5260205f2090810192821562000267579160200282015b828111156200026657825182559160200191906001019062000249565b5b5090506200027691906200027a565b5090565b5b8082111562000293575f815f9055506001016200027b565b5090565b5f604051905090565b5f80fd5b5f80fd5b5f73ffffffffffffffffffffffffffffffffffffffff82169050919050565b5f620002d382620002a8565b9050919050565b620002e581620002c7565b8114620002f0575f80fd5b50565b5f815190506200030381620002da565b92915050565b5f819050919050565b6200031d8162000309565b811462000328575f80fd5b50565b5f815190506200033b8162000312565b92915050565b5f80fd5b5f601f19601f8301169050919050565b7f4e487b71000000000000000000000000000000000000000000000000000000005f52604160045260245ffd5b6200038d8262000345565b810181811067ffffffffffffffff82111715620003af57620003ae62000355565b5b80604052505050565b5f620003c362000297565b9050620003d1828262000382565b919050565b5f67ffffffffffffffff821115620003f357620003f262000355565b5b602082029050602081019050919050565b5f80fd5b5f6200041e6200041884620003d6565b620003b8565b9050808382526020820190506020840283018581111562000444576200044362000404565b5b835b818110156200047157806200045c88826200032b565b84526020840193505060208101905062000446565b5050509392505050565b5f82601f83011262000492576200049162000341565b5b8151620004a484826020860162000408565b91505092915050565b5f805f805f805f80610100898b031215620004cd57620004cc620002a0565b5b5f620004dc8b828c01620002f3565b9850506020620004ef8b828c016200032b565b9750506040620005028b828c016200032b565b9650506060620005158b828c016200032b565b9550506080620005288b828c016200032b565b94505060a089015167ffffffffffffffff8111156200054c576200054b620002a4565b5b6200055a8b828c016200047b565b93505060c089015167ffffffffffffffff8111156200057e576200057d620002a4565b5b6200058c8b828c016200047b565b92505060e06200059f8b828c01620002f3565b9150509295985092959890939650565b5f82825260208201905092915050565b7f496e76616c6964206973737565720000000000000000000000000000000000005f82015250565b5f620005f5600e83620005af565b91506200060282620005bf565b602082019050919050565b5f6020820190508181035f8301526200062681620005e7565b9050919050565b7f496e76616c696420737461626c65636f696e00000000000000000000000000005f82015250565b5f62000663601283620005af565b915062000670826200062d565b602082019050919050565b5f6020820190508181035f830152620006948162000655565b9050919050565b7f4d69736d61746368656420636f75706f6e7300000000000000000000000000005f82015250565b5f620006d1601283620005af565b9150620006de826200069b565b602082019050919050565b5f6020820190508181035f8301526200070281620006c3565b9050919050565b60805160a051611b1a620007635f395f818161057c0152818161095301528181610ba901528181610ef1015261101501525f81816103ce01528181610481015281816107bd015281816108f30152610b850152611b1a5ff3fe608060405234801561000f575f80fd5b506004361061012a575f3560e01c80636392d0dc116100ab578063bf0169301161006f578063bf01693014610322578063d057ee9b1461033e578063d59624b41461035a578063e9cbd82214610378578063ec18efc4146103965761012a565b80636392d0dc1461026a5780637c3a00fd1461029a5780638bb2834b146102b8578063932e2b86146102e8578063b387ef92146103045761012a565b80634885d3f2116100f25780634885d3f2146101c45780634c2067c7146101ce57806353ca516d146101ec5780635f1ff5491461021c5780635f5b01461461023a5761012a565b80630b97bc861461012e5780631d1438481461014c5780631e0018d61461016a57806344fd9caa14610188578063468bb240146101a6575b5f80fd5b6101366103c6565b60405161014391906112a4565b60405180910390f35b6101546103cc565b60405161016191906112fc565b60405180910390f35b6101726103f0565b60405161017f91906112fc565b60405180910390f35b610190610415565b60405161019d91906112a4565b60405180910390f35b6101ae61041b565b6040516101bb91906112a4565b60405180910390f35b6101cc610427565b005b6101d661066f565b6040516101e3919061132f565b60405180910390f35b61020660048036038101906102019190611376565b610682565b60405161021391906112a4565b60405180910390f35b6102246106ee565b604051610231919061132f565b60405180910390f35b610254600480360381019061024f9190611376565b610700565b60405161026191906112a4565b60405180910390f35b610284600480360381019061027f9190611376565b610720565b60405161029191906112a4565b60405180910390f35b6102a2610740565b6040516102af91906112a4565b60405180910390f35b6102d260048036038101906102cd9190611376565b610746565b6040516102df919061132f565b60405180910390f35b61030260048036038101906102fd9190611376565b610763565b005b61030c610a45565b60405161031991906112fc565b60405180910390f35b61033c600480360381019061033791906113cb565b610a6a565b005b610358600480360381019061035391906113f6565b610ce3565b005b61036261100d565b60405161036f91906112a4565b60405180910390f35b610380611013565b60405161038d919061148f565b60405180910390f35b6103b060048036038101906103ab9190611376565b611037565b6040516103bd91906112a4565b60405180910390f35b60035481565b7f000000000000000000000000000000000000000000000000000000000000000081565b60015f9054906101000a900473ffffffffffffffffffffffffffffffffffffffff1681565b60055481565b5f600880549050905090565b61042f6110a3565b600960019054906101000a900460ff161561047f576040517f08c379a000000000000000000000000000000000000000000000000000000000815260040161047690611502565b60405180910390fd5b7f000000000000000000000000000000000000000000000000000000000000000073ffffffffffffffffffffffffffffffffffffffff163373ffffffffffffffffffffffffffffffffffffffff161461050d576040517f08c379a00000000000000000000000000000000000000000000000000000000081526004016105049061156a565b60405180910390fd5b600454421015610552576040517f08c379a0000000000000000000000000000000000000000000000000000000008152600401610549906115d2565b60405180910390fd5b6105c060025f9054906101000a900473ffffffffffffffffffffffffffffffffffffffff166005547f000000000000000000000000000000000000000000000000000000000000000073ffffffffffffffffffffffffffffffffffffffff166110e79092919063ffffffff16565b6001600960016101000a81548160ff0219169083151502179055507fdc013715024602616599d62723b14eed2b92fbefe85c725f99328116524b23a26005544260025f9054906101000a900473ffffffffffffffffffffffffffffffffffffffff16604051610631939291906115f0565b60405180910390a17f203d82d8d99f63bfecc8335216735e0271df4249ea752b030f9ab305b94e5afe60405160405180910390a161066d611166565b565b600960019054906101000a900460ff1681565b5f60088054905082106106ca576040517f08c379a00000000000000000000000000000000000000000000000000000000081526004016106c19061166f565b60405180910390fd5b600882815481106106de576106dd61168d565b5b905f5260205f2001549050919050565b60095f9054906101000a900460ff1681565b6007818154811061070f575f80fd5b905f5260205f20015f915090505481565b6008818154811061072f575f80fd5b905f5260205f20015f915090505481565b60065481565b600a602052805f5260405f205f915054906101000a900460ff1681565b61076b6110a3565b600960019054906101000a900460ff16156107bb576040517f08c379a00000000000000000000000000000000000000000000000000000000081526004016107b290611502565b60405180910390fd5b7f000000000000000000000000000000000000000000000000000000000000000073ffffffffffffffffffffffffffffffffffffffff163373ffffffffffffffffffffffffffffffffffffffff1614610849576040517f08c379a000000000000000000000000000000000000000000000000000000000815260040161084090611704565b60405180910390fd5b6008805490508110610890576040517f08c379a00000000000000000000000000000000000000000000000000000000081526004016108879061176c565b60405180910390fd5b600a5f8281526020019081526020015f205f9054906101000a900460ff16156108ee576040517f08c379a00000000000000000000000000000000000000000000000000000000081526004016108e5906117d4565b60405180910390fd5b6109987f000000000000000000000000000000000000000000000000000000000000000060025f9054906101000a900473ffffffffffffffffffffffffffffffffffffffff16600884815481106109485761094761168d565b5b905f5260205f2001547f000000000000000000000000000000000000000000000000000000000000000073ffffffffffffffffffffffffffffffffffffffff1661116f909392919063ffffffff16565b6001600a5f8381526020019081526020015f205f6101000a81548160ff021916908315150217905550807f9bf77f590a6d654787b0bec60b5a5bc13ff34350aff18c30ee87a57228ef7f13600883815481106109f7576109f661168d565b5b905f5260205f2001544260025f9054906101000a900473ffffffffffffffffffffffffffffffffffffffff16604051610a32939291906115f0565b60405180910390a2610a42611166565b50565b60025f9054906101000a900473ffffffffffffffffffffffffffffffffffffffff1681565b610a726110a3565b600960019054906101000a900460ff1615610ac2576040517f08c379a0000000000000000000000000000000000000000000000000000000008152600401610ab990611502565b60405180910390fd5b60095f9054906101000a900460ff1615610b11576040517f08c379a0000000000000000000000000000000000000000000000000000000008152600401610b089061183c565b60405180910390fd5b5f73ffffffffffffffffffffffffffffffffffffffff168173ffffffffffffffffffffffffffffffffffffffff1603610b7f576040517f08c379a0000000000000000000000000000000000000000000000000000000008152600401610b76906118a4565b60405180910390fd5b610bee817f00000000000000000000000000000000000000000000000000000000000000006005547f000000000000000000000000000000000000000000000000000000000000000073ffffffffffffffffffffffffffffffffffffffff1661116f909392919063ffffffff16565b8060015f6101000a81548173ffffffffffffffffffffffffffffffffffffffff021916908373ffffffffffffffffffffffffffffffffffffffff1602179055508060025f6101000a81548173ffffffffffffffffffffffffffffffffffffffff021916908373ffffffffffffffffffffffffffffffffffffffff160217905550600160095f6101000a81548160ff0219169083151502179055508073ffffffffffffffffffffffffffffffffffffffff167fa59f12e354e8cd10bb74c559844c2dd69a5458e31fe56c7594c62ca57480509a600554604051610cd091906112a4565b60405180910390a2610ce0611166565b50565b610ceb6110a3565b600960019054906101000a900460ff1615610d3b576040517f08c379a0000000000000000000000000000000000000000000000000000000008152600401610d3290611502565b60405180910390fd5b60095f9054906101000a900460ff16610d89576040517f08c379a0000000000000000000000000000000000000000000000000000000008152600401610d809061190c565b60405180910390fd5b60025f9054906101000a900473ffffffffffffffffffffffffffffffffffffffff1673ffffffffffffffffffffffffffffffffffffffff163373ffffffffffffffffffffffffffffffffffffffff1614610e18576040517f08c379a0000000000000000000000000000000000000000000000000000000008152600401610e0f9061199a565b60405180910390fd5b5f73ffffffffffffffffffffffffffffffffffffffff168273ffffffffffffffffffffffffffffffffffffffff1603610e86576040517f08c379a0000000000000000000000000000000000000000000000000000000008152600401610e7d90611a02565b60405180910390fd5b5f8111610ec8576040517f08c379a0000000000000000000000000000000000000000000000000000000008152600401610ebf90611a6a565b60405180910390fd5b610f368260025f9054906101000a900473ffffffffffffffffffffffffffffffffffffffff16837f000000000000000000000000000000000000000000000000000000000000000073ffffffffffffffffffffffffffffffffffffffff1661116f909392919063ffffffff16565b5f60025f9054906101000a900473ffffffffffffffffffffffffffffffffffffffff1690508260025f6101000a81548173ffffffffffffffffffffffffffffffffffffffff021916908373ffffffffffffffffffffffffffffffffffffffff1602179055508273ffffffffffffffffffffffffffffffffffffffff168173ffffffffffffffffffffffffffffffffffffffff167fa44f4ec70eb109c4768a67ad13a74574308376897ef48146365a7e65bbedf24084604051610ff891906112a4565b60405180910390a350611009611166565b5050565b60045481565b7f000000000000000000000000000000000000000000000000000000000000000081565b5f600780549050821061107f576040517f08c379a00000000000000000000000000000000000000000000000000000000081526004016110769061166f565b60405180910390fd5b600782815481106110935761109261168d565b5b905f5260205f2001549050919050565b60025f54036110de576040517f3ee5aeb500000000000000000000000000000000000000000000000000000000815260040160405180910390fd5b60025f81905550565b611161838473ffffffffffffffffffffffffffffffffffffffff1663a9059cbb858560405160240161111a929190611a88565b604051602081830303815290604052915060e01b6020820180517bffffffffffffffffffffffffffffffffffffffffffffffffffffffff83818316178352505050506111f1565b505050565b60015f81905550565b6111eb848573ffffffffffffffffffffffffffffffffffffffff166323b872dd8686866040516024016111a493929190611aaf565b604051602081830303815290604052915060e01b6020820180517bffffffffffffffffffffffffffffffffffffffffffffffffffffffff83818316178352505050506111f1565b50505050565b5f8060205f8451602086015f885af180611210576040513d5f823e3d81fd5b3d92505f519150505f8214611229576001811415611244565b5f8473ffffffffffffffffffffffffffffffffffffffff163b145b1561128657836040517f5274afe700000000000000000000000000000000000000000000000000000000815260040161127d91906112fc565b60405180910390fd5b50505050565b5f819050919050565b61129e8161128c565b82525050565b5f6020820190506112b75f830184611295565b92915050565b5f73ffffffffffffffffffffffffffffffffffffffff82169050919050565b5f6112e6826112bd565b9050919050565b6112f6816112dc565b82525050565b5f60208201905061130f5f8301846112ed565b92915050565b5f8115159050919050565b61132981611315565b82525050565b5f6020820190506113425f830184611320565b92915050565b5f80fd5b6113558161128c565b811461135f575f80fd5b50565b5f813590506113708161134c565b92915050565b5f6020828403121561138b5761138a611348565b5b5f61139884828501611362565b91505092915050565b6113aa816112dc565b81146113b4575f80fd5b50565b5f813590506113c5816113a1565b92915050565b5f602082840312156113e0576113df611348565b5b5f6113ed848285016113b7565b91505092915050565b5f806040838503121561140c5761140b611348565b5b5f611419858286016113b7565b925050602061142a85828601611362565b9150509250929050565b5f819050919050565b5f61145761145261144d846112bd565b611434565b6112bd565b9050919050565b5f6114688261143d565b9050919050565b5f6114798261145e565b9050919050565b6114898161146f565b82525050565b5f6020820190506114a25f830184611480565b92915050565b5f82825260208201905092915050565b7f416e6e75697479206578706972656400000000000000000000000000000000005f82015250565b5f6114ec600f836114a8565b91506114f7826114b8565b602082019050919050565b5f6020820190508181035f830152611519816114e0565b9050919050565b7f4f6e6c79206973737565722063616e2072656465656d000000000000000000005f82015250565b5f6115546016836114a8565b915061155f82611520565b602082019050919050565b5f6020820190508181035f83015261158181611548565b9050919050565b7f4e6f7420796574206d61747572656400000000000000000000000000000000005f82015250565b5f6115bc600f836114a8565b91506115c782611588565b602082019050919050565b5f6020820190508181035f8301526115e9816115b0565b9050919050565b5f6060820190506116035f830186611295565b6116106020830185611295565b61161d60408301846112ed565b949350505050565b7f496e76616c696420696e646578000000000000000000000000000000000000005f82015250565b5f611659600d836114a8565b915061166482611625565b602082019050919050565b5f6020820190508181035f8301526116868161164d565b9050919050565b7f4e487b71000000000000000000000000000000000000000000000000000000005f52603260045260245ffd5b7f4f6e6c79206973737565722063616e2070617920636f75706f6e7300000000005f82015250565b5f6116ee601b836114a8565b91506116f9826116ba565b602082019050919050565b5f6020820190508181035f83015261171b816116e2565b9050919050565b7f496e76616c696420636f75706f6e20696e6465780000000000000000000000005f82015250565b5f6117566014836114a8565b915061176182611722565b602082019050919050565b5f6020820190508181035f8301526117838161174a565b9050919050565b7f436f75706f6e20616c72656164792070616964000000000000000000000000005f82015250565b5f6117be6013836114a8565b91506117c98261178a565b602082019050919050565b5f6020820190508181035f8301526117eb816117b2565b9050919050565b7f416c7265616479206973737565640000000000000000000000000000000000005f82015250565b5f611826600e836114a8565b9150611831826117f2565b602082019050919050565b5f6020820190508181035f8301526118538161181a565b9050919050565b7f496e76616c696420696e766573746f72000000000000000000000000000000005f82015250565b5f61188e6010836114a8565b91506118998261185a565b602082019050919050565b5f6020820190508181035f8301526118bb81611882565b9050919050565b7f416e6e75697479206e6f742069737375656400000000000000000000000000005f82015250565b5f6118f66012836114a8565b9150611901826118c2565b602082019050919050565b5f6020820190508181035f830152611923816118ea565b9050919050565b7f4f6e6c792063757272656e74206f776e65722063616e20696e697469617465205f8201527f7472616e73666572000000000000000000000000000000000000000000000000602082015250565b5f6119846028836114a8565b915061198f8261192a565b604082019050919050565b5f6020820190508181035f8301526119b181611978565b9050919050565b7f496e76616c6964206e6577206f776e65720000000000000000000000000000005f82015250565b5f6119ec6011836114a8565b91506119f7826119b8565b602082019050919050565b5f6020820190508181035f830152611a19816119e0565b9050919050565b7f5072696365206d757374206265203e20300000000000000000000000000000005f82015250565b5f611a546011836114a8565b9150611a5f82611a20565b602082019050919050565b5f6020820190508181035f830152611a8181611a48565b9050919050565b5f604082019050611a9b5f8301856112ed565b611aa86020830184611295565b9392505050565b5f606082019050611ac25f8301866112ed565b611acf60208301856112ed565b611adc6040830184611295565b94935050505056fea2646970667358221220541be419a3d21848e376b037baca122bcb1c77b9d750394b5a18ab46802e59e364736f6c63430008150033",
  "immutableReferences": {
    "725": [
      {
        "length": 32,
        "start": 974
      },
      {
        "length": 32,
        "start": 1153
      },
      {
        "length": 32,
        "start": 1981
      },
      {
        "length": 32,
        "start": 2291
      },
      {
        "length": 32,
        "start": 2949
      }
    ],
    "746": [
      {
        "length": 32,
        "start": 1404
      },
      {
        "length": 32,
        "start": 2387
      },
      {
        "length": 32,
        "start": 2985
      },
      {
        "length": 32,
        "start": 3825
      },
      {
        "length": 32,
        "start": 4117
      }
    ]
  },
  "source": "// SPDX-License-Identifier: MIT\npragma solidity ^0.8.21;\n\n/// @dev Hardened AnnuityToken with non-reentrancy and safer maturity redemption.\n/// Minimal edits to original logic: added ReentrancyGuard, input checks, NatSpec, and changed redeem to use safeTransfer.\nimport \"@openzeppelin/contracts/utils/ReentrancyGuard.sol\";\nimport \"@openzeppelin/contracts/token/ERC20/IERC20.sol\";\nimport \"@openzeppelin/contracts/token/ERC20/utils/SafeERC20.sol\";\n\ncontract AnnuityToken is ReentrancyGuard {\n    using SafeERC20 for IERC20;\n\n    // Basic asset fields\n    address public immutable issuer;\n    address public investor;      // original investor\n    address public currentOwner;  // current owner (changes on secondary trades)\n    uint256 public startDate;\n    uint256 public maturityDate;\n    uint256 public faceValue;\n    uint256 public interestRate; // basis points (optional semantics)\n    uint256[] public couponDates;\n    uint256[] public couponValues;\n    IERC20 public immutable stablecoin;\n    bool public issued;\n    bool public expired;\n\n    // track paid coupons to avoid double-payments\n    mapping(uint256 => bool) public couponPaid;\n\n    // Events\n    event Issued(address indexed investor, uint256 faceValue);\n    event CouponPaid(uint256 indexed index, uint256 value, uint256 timestamp, address to);\n    event AnnuityTransferred(address indexed from, address indexed to, uint256 price);\n    event Redeemed(uint256 faceValue, uint256 timestamp, address to);\n    event Expired();\n\n    /// @notice Construct the AnnuityToken\n    /// @param _issuer Address of the issuer (bank)\n    /// @param _startDate Start timestamp\n    /// @param _maturityDate Maturity timestamp\n    /// @param _faceValue Face value (in stablecoin smallest units)\n    /// @param _interestRate Interest rate (basis points; semantics off-chain)\n    /// @param _couponDates Array of coupon timestamps\n    /// @param _couponValues Array of coupon amounts (same length as _couponDates)\n    /// @param _stablecoin Address of ERC20 stablecoin (wCBDC mock)\n    constructor(\n        address _issuer,\n        uint256 _startDate,\n        uint256 _maturityDate,\n        uint256 _faceValue,\n        uint256 _interestRate,\n        uint256[] memory _couponDates,\n        uint256[] memory _couponValues,\n        address _stablecoin\n    ) {\n        require(_issuer != address(0), \"Invalid issuer\");\n        require(_stablecoin != address(0), \"Invalid stablecoin\");\n        require(_couponDates.length == _couponValues.length, \"Mismatched coupons\");\n        issuer = _issuer;\n        startDate = _startDate;\n        maturityDate = _maturityDate;\n        faceValue = _faceValue;\n        interestRate = _interestRate;\n        couponDates = _couponDates;\n        couponValues = _couponValues;\n        stablecoin = IERC20(_stablecoin);\n    }\n\n    modifier notExpired() {\n        require(!expired, \"Annuity expired\");\n        _;\n    }\n\n    /// @notice Investor accepts the annuity and pays face value to the issuer.\n    /// @dev Investor must approve this contract for faceValue before calling. Atomic: transfer then state update.\n    /// @param _investor The address of the investor buying the annuity\n    function acceptAndIssue(address _investor) external nonReentrant notExpired {\n        require(!issued, \"Already issued\");\n        require(_investor != address(0), \"Invalid investor\");\n\n        // Pull face value from investor to issuer (requires investor approval)\n        stablecoin.safeTransferFrom(_investor, issuer, faceValue);\n\n        // set state after successful transfer (atomic because of EVM revert semantics)\n        investor = _investor;\n        currentOwner = _investor;\n        issued = true;\n\n        emit Issued(_investor, faceValue);\n    }\n\n    /// @notice Pay a coupon by index. Pays to the current owner.\n    /// @dev Issuer must approve this contract to move couponValues[index] prior to calling, or issuer may call and use safeTransfer instead of approving.\n    /// @param index Coupon index to pay\n    function payCoupon(uint256 index) external nonReentrant notExpired {\n        require(msg.sender == issuer, \"Only issuer can pay coupons\");\n        require(index < couponValues.length, \"Invalid coupon index\");\n        require(!couponPaid[index], \"Coupon already paid\");\n\n        // Transfer coupon from issuer -> currentOwner (issuer must have approved this contract)\n        stablecoin.safeTransferFrom(issuer, currentOwner, couponValues[index]);\n        couponPaid[index] = true;\n\n        emit CouponPaid(index, couponValues[index], block.timestamp, currentOwner);\n    }\n\n    /// @notice Transfer the annuity to a new owner for a price in stablecoin.\n    /// @dev Workflow: buyer approves this contract for `price`. Then the seller (currentOwner) calls this function.\n    /// @param newOwner The buyer address\n    /// @param price The sale price (stablecoin smallest units)\n    function transferAnnuity(address newOwner, uint256 price) external nonReentrant notExpired {\n        require(issued, \"Annuity not issued\");\n        require(msg.sender == currentOwner, \"Only current owner can initiate transfer\");\n        require(newOwner != address(0), \"Invalid new owner\");\n        require(price > 0, \"Price must be > 0\");\n\n        // Pull price from buyer (newOwner) to the current owner (buyer must approve this contract)\n        stablecoin.safeTransferFrom(newOwner, currentOwner, price);\n\n        address oldOwner = currentOwner;\n        currentOwner = newOwner;\n\n        emit AnnuityTransferred(oldOwner, newOwner, price);\n    }\n\n    /// @notice Redeem face value at maturity.\n    /// @dev Called by issuer when contract matured. Transfers faceValue from issuer to current owner.\n    function redeemMaturity() external nonReentrant notExpired {\n        require(msg.sender == issuer, \"Only issuer can redeem\");\n        require(block.timestamp >= maturityDate, \"Not yet matured\");\n\n        // Transfer directly from issuer to currentOwner (issuer is caller, so use safeTransfer)\n        stablecoin.safeTransfer(currentOwner, faceValue);\n\n        expired = true;\n        emit Redeemed(faceValue, block.timestamp, currentOwner);\n        emit Expired();\n    }\n\n    /// @notice Returns number of coupons\n    function getCouponCount() external view returns (uint256) {\n        return couponValues.length;\n    }\n\n    /// @notice Helper to view coupon value\n    function getCouponValue(uint256 index) external view returns (uint256) {\n        require(index < couponValues.length, \"Invalid index\");\n        return couponValues[index];\n    }\n\n    /// @notice Helper to view coupon date\n    function getCouponDate(uint256 index) external view returns (uint256) {\n        require(index < couponDates.length, \"Invalid index\");\n        return couponDates[index];\n    }\n}",
  "sourcePath": "/Users/raphaellima/Desktop/RedbellyAnnuity/contracts/AnnuityToken.sol",
  "compiler": {
    "name": "solc",
    "version": "0.8.21+commit.d9974bed.Emscripten.clang"
  },
  "schemaVersion": "3.4.16",
  "updatedAt": "2025-10-04T22:21:35.056Z",
  "networkType": "ethereum",
  "devdoc": {
    "errors": {
      "ReentrancyGuardReentrantCall()": [
        {
          "details": "Unauthorized reentrant call."
        }
      ],
      "SafeERC20FailedOperation(address)": [
        {
          "details": "An operation with an ERC-20 token failed."
        }
      ]
    },
    "kind": "dev",
    "methods": {
      "acceptAndIssue(address)": {
        "details": "Investor must approve this contract for faceValue before calling. Atomic: transfer then state update.",
        "params": {
          "_investor": "The address of the investor buying the annuity"
        }
      },
      "constructor": {
        "params": {
          "_couponDates": "Array of coupon timestamps",
          "_couponValues": "Array of coupon amounts (same length as _couponDates)",
          "_faceValue": "Face value (in stablecoin smallest units)",
          "_interestRate": "Interest rate (basis points; semantics off-chain)",
          "_issuer": "Address of the issuer (bank)",
          "_maturityDate": "Maturity timestamp",
          "_stablecoin": "Address of ERC20 stablecoin (wCBDC mock)",
          "_startDate": "Start timestamp"
        }
      },
      "payCoupon(uint256)": {
        "details": "Issuer must approve this contract to move couponValues[index] prior to calling, or issuer may call and use safeTransfer instead of approving.",
        "params": {
          "index": "Coupon index to pay"
        }
      },
      "redeemMaturity()": {
        "details": "Called by issuer when contract matured. Transfers faceValue from issuer to current owner."
      },
      "transferAnnuity(address,uint256)": {
        "details": "Workflow: buyer approves this contract for `price`. Then the seller (currentOwner) calls this function.",
        "params": {
          "newOwner": "The buyer address",
          "price": "The sale price (stablecoin smallest units)"
        }
      }
    },
    "version": 1
  },
  "userdoc": {
    "kind": "user",
    "methods": {
      "acceptAndIssue(address)": {
        "notice": "Investor accepts the annuity and pays face value to the issuer."
      },
      "constructor": {
        "notice": "Construct the AnnuityToken"
      },
      "getCouponCount()": {
        "notice": "Returns number of coupons"
      },
      "getCouponDate(uint256)": {
        "notice": "Helper to view coupon date"
      },
      "getCouponValue(uint256)": {
        "notice": "Helper to view coupon value"
      },
      "payCoupon(uint256)": {
        "notice": "Pay a coupon by index. Pays to the current owner."
      },
      "redeemMaturity()": {
        "notice": "Redeem face value at maturity."
      },
      "transferAnnuity(address,uint256)": {
        "notice": "Transfer the annuity to a new owner for a price in stablecoin."
      }
    },
    "version": 1
  }
}