{
  "contractName": "AnnuityToken",
  "abi": [
    {
      "inputs": [
        {
          "internalType": "address",
          "name": "_issuer",
          "type": "address"
        },
        {
          "internalType": "uint256",
          "name": "_startDate",
          "type": "uint256"
        },
        {
          "internalType": "uint256",
          "name": "_maturityDate",
          "type": "uint256"
        },
        {
          "internalType": "uint256",
          "name": "_faceValue",
          "type": "uint256"
        },
        {
          "internalType": "uint256",
          "name": "_interestRate",
          "type": "uint256"
        },
        {
          "internalType": "uint256[]",
          "name": "_couponDates",
          "type": "uint256[]"
        },
        {
          "internalType": "uint256[]",
          "name": "_couponValues",
          "type": "uint256[]"
        },
        {
          "internalType": "address",
          "name": "_stablecoin",
          "type": "address"
        }
      ],
      "stateMutability": "nonpayable",
      "type": "constructor"
    },
    {
      "inputs": [
        {
          "internalType": "address",
          "name": "token",
          "type": "address"
        }
      ],
      "name": "SafeERC20FailedOperation",
      "type": "error"
    },
    {
      "anonymous": false,
      "inputs": [
        {
          "indexed": true,
          "internalType": "address",
          "name": "from",
          "type": "address"
        },
        {
          "indexed": true,
          "internalType": "address",
          "name": "to",
          "type": "address"
        },
        {
          "indexed": false,
          "internalType": "uint256",
          "name": "price",
          "type": "uint256"
        }
      ],
      "name": "AnnuityTransferred",
      "type": "event"
    },
    {
      "anonymous": false,
      "inputs": [
        {
          "indexed": true,
          "internalType": "uint256",
          "name": "index",
          "type": "uint256"
        },
        {
          "indexed": false,
          "internalType": "uint256",
          "name": "value",
          "type": "uint256"
        },
        {
          "indexed": false,
          "internalType": "uint256",
          "name": "timestamp",
          "type": "uint256"
        },
        {
          "indexed": false,
          "internalType": "address",
          "name": "to",
          "type": "address"
        }
      ],
      "name": "CouponPaid",
      "type": "event"
    },
    {
      "anonymous": false,
      "inputs": [
        {
          "indexed": true,
          "internalType": "address",
          "name": "investor",
          "type": "address"
        },
        {
          "indexed": false,
          "internalType": "uint256",
          "name": "faceValue",
          "type": "uint256"
        }
      ],
      "name": "Issued",
      "type": "event"
    },
    {
      "inputs": [
        {
          "internalType": "uint256",
          "name": "",
          "type": "uint256"
        }
      ],
      "name": "couponDates",
      "outputs": [
        {
          "internalType": "uint256",
          "name": "",
          "type": "uint256"
        }
      ],
      "stateMutability": "view",
      "type": "function",
      "constant": true
    },
    {
      "inputs": [
        {
          "internalType": "uint256",
          "name": "",
          "type": "uint256"
        }
      ],
      "name": "couponPaid",
      "outputs": [
        {
          "internalType": "bool",
          "name": "",
          "type": "bool"
        }
      ],
      "stateMutability": "view",
      "type": "function",
      "constant": true
    },
    {
      "inputs": [
        {
          "internalType": "uint256",
          "name": "",
          "type": "uint256"
        }
      ],
      "name": "couponValues",
      "outputs": [
        {
          "internalType": "uint256",
          "name": "",
          "type": "uint256"
        }
      ],
      "stateMutability": "view",
      "type": "function",
      "constant": true
    },
    {
      "inputs": [],
      "name": "currentOwner",
      "outputs": [
        {
          "internalType": "address",
          "name": "",
          "type": "address"
        }
      ],
      "stateMutability": "view",
      "type": "function",
      "constant": true
    },
    {
      "inputs": [],
      "name": "faceValue",
      "outputs": [
        {
          "internalType": "uint256",
          "name": "",
          "type": "uint256"
        }
      ],
      "stateMutability": "view",
      "type": "function",
      "constant": true
    },
    {
      "inputs": [],
      "name": "interestRate",
      "outputs": [
        {
          "internalType": "uint256",
          "name": "",
          "type": "uint256"
        }
      ],
      "stateMutability": "view",
      "type": "function",
      "constant": true
    },
    {
      "inputs": [],
      "name": "investor",
      "outputs": [
        {
          "internalType": "address",
          "name": "",
          "type": "address"
        }
      ],
      "stateMutability": "view",
      "type": "function",
      "constant": true
    },
    {
      "inputs": [],
      "name": "issued",
      "outputs": [
        {
          "internalType": "bool",
          "name": "",
          "type": "bool"
        }
      ],
      "stateMutability": "view",
      "type": "function",
      "constant": true
    },
    {
      "inputs": [],
      "name": "issuer",
      "outputs": [
        {
          "internalType": "address",
          "name": "",
          "type": "address"
        }
      ],
      "stateMutability": "view",
      "type": "function",
      "constant": true
    },
    {
      "inputs": [],
      "name": "maturityDate",
      "outputs": [
        {
          "internalType": "uint256",
          "name": "",
          "type": "uint256"
        }
      ],
      "stateMutability": "view",
      "type": "function",
      "constant": true
    },
    {
      "inputs": [],
      "name": "stablecoin",
      "outputs": [
        {
          "internalType": "contract IERC20",
          "name": "",
          "type": "address"
        }
      ],
      "stateMutability": "view",
      "type": "function",
      "constant": true
    },
    {
      "inputs": [],
      "name": "startDate",
      "outputs": [
        {
          "internalType": "uint256",
          "name": "",
          "type": "uint256"
        }
      ],
      "stateMutability": "view",
      "type": "function",
      "constant": true
    },
    {
      "inputs": [
        {
          "internalType": "address",
          "name": "_investor",
          "type": "address"
        }
      ],
      "name": "acceptAndIssue",
      "outputs": [],
      "stateMutability": "nonpayable",
      "type": "function"
    },
    {
      "inputs": [
        {
          "internalType": "uint256",
          "name": "index",
          "type": "uint256"
        }
      ],
      "name": "payCoupon",
      "outputs": [],
      "stateMutability": "nonpayable",
      "type": "function"
    },
    {
      "inputs": [
        {
          "internalType": "address",
          "name": "newOwner",
          "type": "address"
        },
        {
          "internalType": "uint256",
          "name": "price",
          "type": "uint256"
        }
      ],
      "name": "transferAnnuity",
      "outputs": [],
      "stateMutability": "nonpayable",
      "type": "function"
    },
    {
      "inputs": [],
      "name": "getCouponCount",
      "outputs": [
        {
          "internalType": "uint256",
          "name": "",
          "type": "uint256"
        }
      ],
      "stateMutability": "view",
      "type": "function",
      "constant": true
    },
    {
      "inputs": [
        {
          "internalType": "uint256",
          "name": "index",
          "type": "uint256"
        }
      ],
      "name": "getCouponValue",
      "outputs": [
        {
          "internalType": "uint256",
          "name": "",
          "type": "uint256"
        }
      ],
      "stateMutability": "view",
      "type": "function",
      "constant": true
    },
    {
      "inputs": [
        {
          "internalType": "uint256",
          "name": "index",
          "type": "uint256"
        }
      ],
      "name": "getCouponDate",
      "outputs": [
        {
          "internalType": "uint256",
          "name": "",
          "type": "uint256"
        }
      ],
      "stateMutability": "view",
      "type": "function",
      "constant": true
    }
  ],
  "bytecode": "0x608060405234801562000010575f80fd5b5060405162001986380380620019868339818101604052810190620000369190620003db565b81518351146200007d576040517f08c379a000000000000000000000000000000000000000000000000000000000815260040162000074906200053b565b60405180910390fd5b875f806101000a81548173ffffffffffffffffffffffffffffffffffffffff021916908373ffffffffffffffffffffffffffffffffffffffff160217905550866003819055508560048190555084600581905550836006819055508260079080519060200190620000f092919062000158565b5081600890805190602001906200010992919062000158565b508060095f6101000a81548173ffffffffffffffffffffffffffffffffffffffff021916908373ffffffffffffffffffffffffffffffffffffffff16021790555050505050505050506200055b565b828054828255905f5260205f2090810192821562000195579160200282015b828111156200019457825182559160200191906001019062000177565b5b509050620001a49190620001a8565b5090565b5b80821115620001c1575f815f905550600101620001a9565b5090565b5f604051905090565b5f80fd5b5f80fd5b5f73ffffffffffffffffffffffffffffffffffffffff82169050919050565b5f6200020182620001d6565b9050919050565b6200021381620001f5565b81146200021e575f80fd5b50565b5f81519050620002318162000208565b92915050565b5f819050919050565b6200024b8162000237565b811462000256575f80fd5b50565b5f81519050620002698162000240565b92915050565b5f80fd5b5f601f19601f8301169050919050565b7f4e487b71000000000000000000000000000000000000000000000000000000005f52604160045260245ffd5b620002bb8262000273565b810181811067ffffffffffffffff82111715620002dd57620002dc62000283565b5b80604052505050565b5f620002f1620001c5565b9050620002ff8282620002b0565b919050565b5f67ffffffffffffffff82111562000321576200032062000283565b5b602082029050602081019050919050565b5f80fd5b5f6200034c620003468462000304565b620002e6565b9050808382526020820190506020840283018581111562000372576200037162000332565b5b835b818110156200039f57806200038a888262000259565b84526020840193505060208101905062000374565b5050509392505050565b5f82601f830112620003c057620003bf6200026f565b5b8151620003d284826020860162000336565b91505092915050565b5f805f805f805f80610100898b031215620003fb57620003fa620001ce565b5b5f6200040a8b828c0162000221565b98505060206200041d8b828c0162000259565b9750506040620004308b828c0162000259565b9650506060620004438b828c0162000259565b9550506080620004568b828c0162000259565b94505060a089015167ffffffffffffffff8111156200047a5762000479620001d2565b5b620004888b828c01620003a9565b93505060c089015167ffffffffffffffff811115620004ac57620004ab620001d2565b5b620004ba8b828c01620003a9565b92505060e0620004cd8b828c0162000221565b9150509295985092959890939650565b5f82825260208201905092915050565b7f4d69736d61746368656420636f75706f6e7300000000000000000000000000005f82015250565b5f62000523601283620004dd565b91506200053082620004ed565b602082019050919050565b5f6020820190508181035f830152620005548162000515565b9050919050565b61141d80620005695f395ff3fe608060405234801561000f575f80fd5b5060043610610114575f3560e01c80637c3a00fd116100a0578063bf0169301161006f578063bf016930146102e4578063d057ee9b14610300578063d59624b41461031c578063e9cbd8221461033a578063ec18efc41461035857610114565b80637c3a00fd1461025c5780638bb2834b1461027a578063932e2b86146102aa578063b387ef92146102c657610114565b8063468bb240116100e7578063468bb2401461019057806353ca516d146101ae5780635f1ff549146101de5780635f5b0146146101fc5780636392d0dc1461022c57610114565b80630b97bc86146101185780631d143848146101365780631e0018d61461015457806344fd9caa14610172575b5f80fd5b610120610388565b60405161012d9190610dd6565b60405180910390f35b61013e61038e565b60405161014b9190610e2e565b60405180910390f35b61015c6103b1565b6040516101699190610e2e565b60405180910390f35b61017a6103d6565b6040516101879190610dd6565b60405180910390f35b6101986103dc565b6040516101a59190610dd6565b60405180910390f35b6101c860048036038101906101c39190610e75565b6103e8565b6040516101d59190610dd6565b60405180910390f35b6101e6610454565b6040516101f39190610eba565b60405180910390f35b61021660048036038101906102119190610e75565b610467565b6040516102239190610dd6565b60405180910390f35b61024660048036038101906102419190610e75565b610487565b6040516102539190610dd6565b60405180910390f35b6102646104a7565b6040516102719190610dd6565b60405180910390f35b610294600480360381019061028f9190610e75565b6104ad565b6040516102a19190610eba565b60405180910390f35b6102c460048036038101906102bf9190610e75565b6104ca565b005b6102ce61074b565b6040516102db9190610e2e565b60405180910390f35b6102fe60048036038101906102f99190610efd565b610770565b005b61031a60048036038101906103159190610f28565b610980565b005b610324610c0a565b6040516103319190610dd6565b60405180910390f35b610342610c10565b60405161034f9190610fc1565b60405180910390f35b610372600480360381019061036d9190610e75565b610c35565b60405161037f9190610dd6565b60405180910390f35b60035481565b5f8054906101000a900473ffffffffffffffffffffffffffffffffffffffff1681565b60015f9054906101000a900473ffffffffffffffffffffffffffffffffffffffff1681565b60055481565b5f600880549050905090565b5f6008805490508210610430576040517f08c379a000000000000000000000000000000000000000000000000000000000815260040161042790611034565b60405180910390fd5b6008828154811061044457610443611052565b5b905f5260205f2001549050919050565b600960149054906101000a900460ff1681565b60078181548110610476575f80fd5b905f5260205f20015f915090505481565b60088181548110610496575f80fd5b905f5260205f20015f915090505481565b60065481565b600a602052805f5260405f205f915054906101000a900460ff1681565b5f8054906101000a900473ffffffffffffffffffffffffffffffffffffffff1673ffffffffffffffffffffffffffffffffffffffff163373ffffffffffffffffffffffffffffffffffffffff1614610557576040517f08c379a000000000000000000000000000000000000000000000000000000000815260040161054e906110c9565b60405180910390fd5b600880549050811061059e576040517f08c379a000000000000000000000000000000000000000000000000000000000815260040161059590611131565b60405180910390fd5b600a5f8281526020019081526020015f205f9054906101000a900460ff16156105fc576040517f08c379a00000000000000000000000000000000000000000000000000000000081526004016105f390611199565b60405180910390fd5b6106a65f8054906101000a900473ffffffffffffffffffffffffffffffffffffffff1660025f9054906101000a900473ffffffffffffffffffffffffffffffffffffffff166008848154811061065557610654611052565b5b905f5260205f20015460095f9054906101000a900473ffffffffffffffffffffffffffffffffffffffff1673ffffffffffffffffffffffffffffffffffffffff16610ca1909392919063ffffffff16565b6001600a5f8381526020019081526020015f205f6101000a81548160ff021916908315150217905550807f9bf77f590a6d654787b0bec60b5a5bc13ff34350aff18c30ee87a57228ef7f136008838154811061070557610704611052565b5b905f5260205f2001544260025f9054906101000a900473ffffffffffffffffffffffffffffffffffffffff16604051610740939291906111b7565b60405180910390a250565b60025f9054906101000a900473ffffffffffffffffffffffffffffffffffffffff1681565b600960149054906101000a900460ff16156107c0576040517f08c379a00000000000000000000000000000000000000000000000000000000081526004016107b790611236565b60405180910390fd5b8060015f6101000a81548173ffffffffffffffffffffffffffffffffffffffff021916908373ffffffffffffffffffffffffffffffffffffffff16021790555061089060015f9054906101000a900473ffffffffffffffffffffffffffffffffffffffff165f8054906101000a900473ffffffffffffffffffffffffffffffffffffffff1660055460095f9054906101000a900473ffffffffffffffffffffffffffffffffffffffff1673ffffffffffffffffffffffffffffffffffffffff16610ca1909392919063ffffffff16565b6001600960146101000a81548160ff02191690831515021790555060015f9054906101000a900473ffffffffffffffffffffffffffffffffffffffff1660025f6101000a81548173ffffffffffffffffffffffffffffffffffffffff021916908373ffffffffffffffffffffffffffffffffffffffff16021790555060015f9054906101000a900473ffffffffffffffffffffffffffffffffffffffff1673ffffffffffffffffffffffffffffffffffffffff167fa59f12e354e8cd10bb74c559844c2dd69a5458e31fe56c7594c62ca57480509a6005546040516109759190610dd6565b60405180910390a250565b600960149054906101000a900460ff166109cf576040517f08c379a00000000000000000000000000000000000000000000000000000000081526004016109c69061129e565b60405180910390fd5b60025f9054906101000a900473ffffffffffffffffffffffffffffffffffffffff1673ffffffffffffffffffffffffffffffffffffffff163373ffffffffffffffffffffffffffffffffffffffff1614610a5e576040517f08c379a0000000000000000000000000000000000000000000000000000000008152600401610a559061132c565b60405180910390fd5b5f73ffffffffffffffffffffffffffffffffffffffff168273ffffffffffffffffffffffffffffffffffffffff1603610acc576040517f08c379a0000000000000000000000000000000000000000000000000000000008152600401610ac390611394565b60405180910390fd5b610b3b8260025f9054906101000a900473ffffffffffffffffffffffffffffffffffffffff168360095f9054906101000a900473ffffffffffffffffffffffffffffffffffffffff1673ffffffffffffffffffffffffffffffffffffffff16610ca1909392919063ffffffff16565b5f60025f9054906101000a900473ffffffffffffffffffffffffffffffffffffffff1690508260025f6101000a81548173ffffffffffffffffffffffffffffffffffffffff021916908373ffffffffffffffffffffffffffffffffffffffff1602179055508273ffffffffffffffffffffffffffffffffffffffff168173ffffffffffffffffffffffffffffffffffffffff167fa44f4ec70eb109c4768a67ad13a74574308376897ef48146365a7e65bbedf24084604051610bfd9190610dd6565b60405180910390a3505050565b60045481565b60095f9054906101000a900473ffffffffffffffffffffffffffffffffffffffff1681565b5f6007805490508210610c7d576040517f08c379a0000000000000000000000000000000000000000000000000000000008152600401610c7490611034565b60405180910390fd5b60078281548110610c9157610c90611052565b5b905f5260205f2001549050919050565b610d1d848573ffffffffffffffffffffffffffffffffffffffff166323b872dd868686604051602401610cd6939291906113b2565b604051602081830303815290604052915060e01b6020820180517bffffffffffffffffffffffffffffffffffffffffffffffffffffffff8381831617835250505050610d23565b50505050565b5f8060205f8451602086015f885af180610d42576040513d5f823e3d81fd5b3d92505f519150505f8214610d5b576001811415610d76565b5f8473ffffffffffffffffffffffffffffffffffffffff163b145b15610db857836040517f5274afe7000000000000000000000000000000000000000000000000000000008152600401610daf9190610e2e565b60405180910390fd5b50505050565b5f819050919050565b610dd081610dbe565b82525050565b5f602082019050610de95f830184610dc7565b92915050565b5f73ffffffffffffffffffffffffffffffffffffffff82169050919050565b5f610e1882610def565b9050919050565b610e2881610e0e565b82525050565b5f602082019050610e415f830184610e1f565b92915050565b5f80fd5b610e5481610dbe565b8114610e5e575f80fd5b50565b5f81359050610e6f81610e4b565b92915050565b5f60208284031215610e8a57610e89610e47565b5b5f610e9784828501610e61565b91505092915050565b5f8115159050919050565b610eb481610ea0565b82525050565b5f602082019050610ecd5f830184610eab565b92915050565b610edc81610e0e565b8114610ee6575f80fd5b50565b5f81359050610ef781610ed3565b92915050565b5f60208284031215610f1257610f11610e47565b5b5f610f1f84828501610ee9565b91505092915050565b5f8060408385031215610f3e57610f3d610e47565b5b5f610f4b85828601610ee9565b9250506020610f5c85828601610e61565b9150509250929050565b5f819050919050565b5f610f89610f84610f7f84610def565b610f66565b610def565b9050919050565b5f610f9a82610f6f565b9050919050565b5f610fab82610f90565b9050919050565b610fbb81610fa1565b82525050565b5f602082019050610fd45f830184610fb2565b92915050565b5f82825260208201905092915050565b7f496e76616c696420696e646578000000000000000000000000000000000000005f82015250565b5f61101e600d83610fda565b915061102982610fea565b602082019050919050565b5f6020820190508181035f83015261104b81611012565b9050919050565b7f4e487b71000000000000000000000000000000000000000000000000000000005f52603260045260245ffd5b7f4f6e6c79206973737565722063616e2070617920636f75706f6e7300000000005f82015250565b5f6110b3601b83610fda565b91506110be8261107f565b602082019050919050565b5f6020820190508181035f8301526110e0816110a7565b9050919050565b7f496e76616c696420636f75706f6e20696e6465780000000000000000000000005f82015250565b5f61111b601483610fda565b9150611126826110e7565b602082019050919050565b5f6020820190508181035f8301526111488161110f565b9050919050565b7f436f75706f6e20616c72656164792070616964000000000000000000000000005f82015250565b5f611183601383610fda565b915061118e8261114f565b602082019050919050565b5f6020820190508181035f8301526111b081611177565b9050919050565b5f6060820190506111ca5f830186610dc7565b6111d76020830185610dc7565b6111e46040830184610e1f565b949350505050565b7f416c7265616479206973737565640000000000000000000000000000000000005f82015250565b5f611220600e83610fda565b915061122b826111ec565b602082019050919050565b5f6020820190508181035f83015261124d81611214565b9050919050565b7f416e6e75697479206e6f742069737375656400000000000000000000000000005f82015250565b5f611288601283610fda565b915061129382611254565b602082019050919050565b5f6020820190508181035f8301526112b58161127c565b9050919050565b7f4f6e6c792063757272656e74206f776e65722063616e20696e697469617465205f8201527f7472616e73666572000000000000000000000000000000000000000000000000602082015250565b5f611316602883610fda565b9150611321826112bc565b604082019050919050565b5f6020820190508181035f8301526113438161130a565b9050919050565b7f496e76616c6964206e6577206f776e65720000000000000000000000000000005f82015250565b5f61137e601183610fda565b91506113898261134a565b602082019050919050565b5f6020820190508181035f8301526113ab81611372565b9050919050565b5f6060820190506113c55f830186610e1f565b6113d26020830185610e1f565b6113df6040830184610dc7565b94935050505056fea264697066735822122010f9382b0a8aa8b82a3671b49167749c7c418093430696583b9c4a45afa5120c64736f6c63430008150033",
  "immutableReferences": {},
  "source": "// SPDX-License-Identifier: MIT\npragma solidity ^0.8.0;\n\nimport \"@openzeppelin/contracts/token/ERC20/IERC20.sol\";\nimport \"@openzeppelin/contracts/token/ERC20/utils/SafeERC20.sol\";\n\ncontract AnnuityToken {\n    using SafeERC20 for IERC20;\n\n    // Basic asset fields\n    address public issuer;\n    address public investor;      // original investor\n    address public currentOwner;  // current owner (changes on secondary trades)\n    uint256 public startDate;\n    uint256 public maturityDate;\n    uint256 public faceValue;\n    uint256 public interestRate; // basis points (optional semantics)\n    uint256[] public couponDates;\n    uint256[] public couponValues;\n    IERC20 public stablecoin;\n    bool public issued;\n\n    // track paid coupons to avoid double-payments\n    mapping(uint256 => bool) public couponPaid;\n\n    // Events\n    event Issued(address indexed investor, uint256 faceValue);\n    event CouponPaid(uint256 indexed index, uint256 value, uint256 timestamp, address to);\n    event AnnuityTransferred(address indexed from, address indexed to, uint256 price);\n\n    constructor(\n        address _issuer,\n        uint256 _startDate,\n        uint256 _maturityDate,\n        uint256 _faceValue,\n        uint256 _interestRate,\n        uint256[] memory _couponDates,\n        uint256[] memory _couponValues,\n        address _stablecoin\n    ) {\n        require(_couponDates.length == _couponValues.length, \"Mismatched coupons\");\n        issuer = _issuer;\n        startDate = _startDate;\n        maturityDate = _maturityDate;\n        faceValue = _faceValue;\n        interestRate = _interestRate;\n        couponDates = _couponDates;\n        couponValues = _couponValues;\n        stablecoin = IERC20(_stablecoin);\n    }\n\n    /// @notice Investor accepts the annuity and pays face value to the issuer.\n    /// @dev Investor must approve this contract for faceValue before calling.\n    function acceptAndIssue(address _investor) external {\n        require(!issued, \"Already issued\");\n        investor = _investor;\n        // Pull face value from investor to issuer\n        stablecoin.safeTransferFrom(investor, issuer, faceValue);\n        issued = true;\n\n        // set current owner to the investor on issue\n        currentOwner = investor;\n\n        emit Issued(investor, faceValue);\n    }\n\n    /// @notice Pay a coupon by index. Pays to the current owner.\n    /// @dev Issuer must approve this contract to move couponValues[index] prior to calling.\n    function payCoupon(uint256 index) external {\n        require(msg.sender == issuer, \"Only issuer can pay coupons\");\n        require(index < couponValues.length, \"Invalid coupon index\");\n        require(!couponPaid[index], \"Coupon already paid\");\n\n        // Transfer coupon from issuer -> currentOwner\n        stablecoin.safeTransferFrom(issuer, currentOwner, couponValues[index]);\n        couponPaid[index] = true;\n\n        emit CouponPaid(index, couponValues[index], block.timestamp, currentOwner);\n    }\n\n    /// @notice Transfer the annuity to a new owner for a price in stablecoin.\n    /// @dev Workflow: buyer approves this contract for `price`. Then the seller (currentOwner) calls this function.\n    function transferAnnuity(address newOwner, uint256 price) external {\n        require(issued, \"Annuity not issued\");\n        require(msg.sender == currentOwner, \"Only current owner can initiate transfer\");\n        require(newOwner != address(0), \"Invalid new owner\");\n\n        // Pull price from buyer (newOwner) to the current owner\n        // newOwner must have approved this contract for `price`.\n        stablecoin.safeTransferFrom(newOwner, currentOwner, price);\n\n        address oldOwner = currentOwner;\n        currentOwner = newOwner;\n\n        emit AnnuityTransferred(oldOwner, newOwner, price);\n    }\n\n    /// @notice Returns number of coupons\n    function getCouponCount() external view returns (uint256) {\n        return couponValues.length;\n    }\n\n    /// @notice Helper to view coupon value\n    function getCouponValue(uint256 index) external view returns (uint256) {\n        require(index < couponValues.length, \"Invalid index\");\n        return couponValues[index];\n    }\n\n    /// @notice Helper to view coupon date\n    function getCouponDate(uint256 index) external view returns (uint256) {\n        require(index < couponDates.length, \"Invalid index\");\n        return couponDates[index];\n    }\n}\n",
  "sourcePath": "/Users/raphaellima/Desktop/RedbellyAnnuity/contracts/AnnuityToken.sol",
  "compiler": {
    "name": "solc",
    "version": "0.8.21+commit.d9974bed.Emscripten.clang"
  },
  "schemaVersion": "3.4.16",
  "updatedAt": "2025-09-26T01:41:37.043Z",
  "networkType": "ethereum",
  "devdoc": {
    "errors": {
      "SafeERC20FailedOperation(address)": [
        {
          "details": "An operation with an ERC-20 token failed."
        }
      ]
    },
    "kind": "dev",
    "methods": {
      "acceptAndIssue(address)": {
        "details": "Investor must approve this contract for faceValue before calling."
      },
      "payCoupon(uint256)": {
        "details": "Issuer must approve this contract to move couponValues[index] prior to calling."
      },
      "transferAnnuity(address,uint256)": {
        "details": "Workflow: buyer approves this contract for `price`. Then the seller (currentOwner) calls this function."
      }
    },
    "version": 1
  },
  "userdoc": {
    "kind": "user",
    "methods": {
      "acceptAndIssue(address)": {
        "notice": "Investor accepts the annuity and pays face value to the issuer."
      },
      "getCouponCount()": {
        "notice": "Returns number of coupons"
      },
      "getCouponDate(uint256)": {
        "notice": "Helper to view coupon date"
      },
      "getCouponValue(uint256)": {
        "notice": "Helper to view coupon value"
      },
      "payCoupon(uint256)": {
        "notice": "Pay a coupon by index. Pays to the current owner."
      },
      "transferAnnuity(address,uint256)": {
        "notice": "Transfer the annuity to a new owner for a price in stablecoin."
      }
    },
    "version": 1
  }
}